{
	"contracts/FundMe.sol": {
		"FundMe": {
			"abi": [
				{
					"inputs": [],
					"stateMutability": "nonpayable",
					"type": "constructor"
				},
				{
					"inputs": [
						{
							"internalType": "uint256",
							"name": "sent",
							"type": "uint256"
						},
						{
							"internalType": "uint256",
							"name": "required",
							"type": "uint256"
						}
					],
					"name": "MinimumFundingNotMet",
					"type": "error"
				},
				{
					"inputs": [
						{
							"internalType": "address",
							"name": "caller",
							"type": "address"
						}
					],
					"name": "NotOwner",
					"type": "error"
				},
				{
					"inputs": [
						{
							"internalType": "uint256",
							"name": "balanceAttempted",
							"type": "uint256"
						}
					],
					"name": "WithdrawFailed",
					"type": "error"
				},
				{
					"stateMutability": "payable",
					"type": "fallback"
				},
				{
					"inputs": [],
					"name": "MINIMUM_USD",
					"outputs": [
						{
							"internalType": "uint256",
							"name": "",
							"type": "uint256"
						}
					],
					"stateMutability": "view",
					"type": "function"
				},
				{
					"inputs": [
						{
							"internalType": "address",
							"name": "funder",
							"type": "address"
						}
					],
					"name": "addressToAmountFunded",
					"outputs": [
						{
							"internalType": "uint256",
							"name": "amountFunded",
							"type": "uint256"
						}
					],
					"stateMutability": "view",
					"type": "function"
				},
				{
					"inputs": [],
					"name": "fund",
					"outputs": [],
					"stateMutability": "payable",
					"type": "function"
				},
				{
					"inputs": [],
					"name": "i_owner",
					"outputs": [
						{
							"internalType": "address",
							"name": "",
							"type": "address"
						}
					],
					"stateMutability": "view",
					"type": "function"
				},
				{
					"inputs": [],
					"name": "withdraw",
					"outputs": [],
					"stateMutability": "nonpayable",
					"type": "function"
				},
				{
					"stateMutability": "payable",
					"type": "receive"
				}
			],
			"devdoc": {
				"kind": "dev",
				"methods": {},
				"version": 1
			},
			"evm": {
				"assembly": "    /* \"contracts/FundMe.sol\":261:1565  contract FundMe {... */\n  mstore(0x40, 0xa0)\n    /* \"contracts/FundMe.sol\":568:620  constructor(){... */\n  callvalue\n  dup1\n  iszero\n  tag_1\n  jumpi\n  0x00\n  dup1\n  revert\ntag_1:\n  pop\n    /* \"contracts/FundMe.sol\":602:612  msg.sender */\n  caller\n    /* \"contracts/FundMe.sol\":592:612  i_owner = msg.sender */\n  0xffffffffffffffffffffffffffffffffffffffff\n  and\n  0x80\n  dup2\n  0xffffffffffffffffffffffffffffffffffffffff\n  and\n  dup2\n  mstore\n  pop\n  pop\n    /* \"contracts/FundMe.sol\":261:1565  contract FundMe {... */\n  mload(0x80)\n  codecopy(0x00, dataOffset(sub_0), dataSize(sub_0))\n  0x00\n  assignImmutable(\"0x63867b8d5e748cf93e24f7b381d92337d037805bfc271d6d67e0e86772662677\")\n  return(0x00, dataSize(sub_0))\nstop\n\nsub_0: assembly {\n        /* \"contracts/FundMe.sol\":261:1565  contract FundMe {... */\n      mstore(0x40, 0x80)\n      jumpi(tag_1, lt(calldatasize, 0x04))\n      shr(0xe0, calldataload(0x00))\n      dup1\n      0x3ccfd60b\n      eq\n      tag_3\n      jumpi\n      dup1\n      0x3e47d6f3\n      eq\n      tag_4\n      jumpi\n      dup1\n      0x6b69a592\n      eq\n      tag_5\n      jumpi\n      dup1\n      0xb60d4288\n      eq\n      tag_6\n      jumpi\n      dup1\n      0xdba6335f\n      eq\n      tag_7\n      jumpi\n      jump(tag_2)\n    tag_1:\n      jumpi(tag_2, calldatasize)\n        /* \"contracts/FundMe.sol\":1485:1491  fund() */\n      tag_10\n        /* \"contracts/FundMe.sol\":1485:1489  fund */\n      tag_11\n        /* \"contracts/FundMe.sol\":1485:1491  fund() */\n      jump\t// in\n    tag_10:\n        /* \"contracts/FundMe.sol\":261:1565  contract FundMe {... */\n      stop\n    tag_2:\n        /* \"contracts/FundMe.sol\":1546:1552  fund() */\n      tag_14\n        /* \"contracts/FundMe.sol\":1546:1550  fund */\n      tag_11\n        /* \"contracts/FundMe.sol\":1546:1552  fund() */\n      jump\t// in\n    tag_14:\n        /* \"contracts/FundMe.sol\":261:1565  contract FundMe {... */\n      stop\n        /* \"contracts/FundMe.sol\":906:1325  function withdraw() public onlyOwner {... */\n    tag_3:\n      callvalue\n      dup1\n      iszero\n      tag_15\n      jumpi\n      0x00\n      dup1\n      revert\n    tag_15:\n      pop\n      tag_16\n      tag_17\n      jump\t// in\n    tag_16:\n      stop\n        /* \"contracts/FundMe.sol\":400:477  mapping (address funder => uint256 amountFunded) public addressToAmountFunded */\n    tag_4:\n      callvalue\n      dup1\n      iszero\n      tag_18\n      jumpi\n      0x00\n      dup1\n      revert\n    tag_18:\n      pop\n      tag_19\n      0x04\n      dup1\n      calldatasize\n      sub\n      dup2\n      add\n      swap1\n      tag_20\n      swap2\n      swap1\n      tag_21\n      jump\t// in\n    tag_20:\n      tag_22\n      jump\t// in\n    tag_19:\n      mload(0x40)\n      tag_23\n      swap2\n      swap1\n      tag_24\n      jump\t// in\n    tag_23:\n      mload(0x40)\n      dup1\n      swap2\n      sub\n      swap1\n      return\n        /* \"contracts/FundMe.sol\":325:367  uint256 public constant MINIMUM_USD = 5e18 */\n    tag_5:\n      callvalue\n      dup1\n      iszero\n      tag_25\n      jumpi\n      0x00\n      dup1\n      revert\n    tag_25:\n      pop\n      tag_26\n      tag_27\n      jump\t// in\n    tag_26:\n      mload(0x40)\n      tag_28\n      swap2\n      swap1\n      tag_24\n      jump\t// in\n    tag_28:\n      mload(0x40)\n      dup1\n      swap2\n      sub\n      swap1\n      return\n        /* \"contracts/FundMe.sol\":628:898  function fund() public payable {... */\n    tag_6:\n      tag_29\n      tag_11\n      jump\t// in\n    tag_29:\n      stop\n        /* \"contracts/FundMe.sol\":486:518  address public immutable i_owner */\n    tag_7:\n      callvalue\n      dup1\n      iszero\n      tag_30\n      jumpi\n      0x00\n      dup1\n      revert\n    tag_30:\n      pop\n      tag_31\n      tag_32\n      jump\t// in\n    tag_31:\n      mload(0x40)\n      tag_33\n      swap2\n      swap1\n      tag_34\n      jump\t// in\n    tag_33:\n      mload(0x40)\n      dup1\n      swap2\n      sub\n      swap1\n      return\n        /* \"contracts/FundMe.sol\":628:898  function fund() public payable {... */\n    tag_11:\n        /* \"contracts/FundMe.sol\":670:690  uint256 amountToFund */\n      0x00\n        /* \"contracts/FundMe.sol\":693:722  msg.value.getConvertionRate() */\n      tag_36\n        /* \"contracts/FundMe.sol\":693:702  msg.value */\n      callvalue\n        /* \"contracts/FundMe.sol\":693:720  msg.value.getConvertionRate */\n      tag_37\n        /* \"contracts/FundMe.sol\":693:722  msg.value.getConvertionRate() */\n      jump\t// in\n    tag_36:\n        /* \"contracts/FundMe.sol\":670:722  uint256 amountToFund = msg.value.getConvertionRate() */\n      swap1\n      pop\n        /* \"contracts/FundMe.sol\":363:367  5e18 */\n      0x4563918244f40000\n        /* \"contracts/FundMe.sol\":737:749  amountToFund */\n      dup2\n        /* \"contracts/FundMe.sol\":737:763  amountToFund < MINIMUM_USD */\n      lt\n        /* \"contracts/FundMe.sol\":733:833  if (amountToFund < MINIMUM_USD) ... */\n      iszero\n      tag_38\n      jumpi\n        /* \"contracts/FundMe.sol\":807:819  amountToFund */\n      dup1\n        /* \"contracts/FundMe.sol\":363:367  5e18 */\n      0x4563918244f40000\n        /* \"contracts/FundMe.sol\":786:833  MinimumFundingNotMet(amountToFund, MINIMUM_USD) */\n      mload(0x40)\n      0x22fad4d200000000000000000000000000000000000000000000000000000000\n      dup2\n      mstore\n      0x04\n      add\n      tag_39\n      swap3\n      swap2\n      swap1\n      tag_40\n      jump\t// in\n    tag_39:\n      mload(0x40)\n      dup1\n      swap2\n      sub\n      swap1\n      revert\n        /* \"contracts/FundMe.sol\":733:833  if (amountToFund < MINIMUM_USD) ... */\n    tag_38:\n        /* \"contracts/FundMe.sol\":881:890  msg.value */\n      callvalue\n        /* \"contracts/FundMe.sol\":844:865  addressToAmountFunded */\n      0x01\n        /* \"contracts/FundMe.sol\":844:877  addressToAmountFunded[msg.sender] */\n      0x00\n        /* \"contracts/FundMe.sol\":866:876  msg.sender */\n      caller\n        /* \"contracts/FundMe.sol\":844:877  addressToAmountFunded[msg.sender] */\n      0xffffffffffffffffffffffffffffffffffffffff\n      and\n      0xffffffffffffffffffffffffffffffffffffffff\n      and\n      dup2\n      mstore\n      0x20\n      add\n      swap1\n      dup2\n      mstore\n      0x20\n      add\n      0x00\n      keccak256\n      0x00\n        /* \"contracts/FundMe.sol\":844:890  addressToAmountFunded[msg.sender] += msg.value */\n      dup3\n      dup3\n      sload\n      tag_41\n      swap2\n      swap1\n      tag_42\n      jump\t// in\n    tag_41:\n      swap3\n      pop\n      pop\n      dup2\n      swap1\n      sstore\n      pop\n        /* \"contracts/FundMe.sol\":659:898  {... */\n      pop\n        /* \"contracts/FundMe.sol\":628:898  function fund() public payable {... */\n      jump\t// out\n        /* \"contracts/FundMe.sol\":906:1325  function withdraw() public onlyOwner {... */\n    tag_17:\n        /* \"contracts/FundMe.sol\":1383:1390  i_owner */\n      immutable(\"0x63867b8d5e748cf93e24f7b381d92337d037805bfc271d6d67e0e86772662677\")\n        /* \"contracts/FundMe.sol\":1369:1390  msg.sender != i_owner */\n      0xffffffffffffffffffffffffffffffffffffffff\n      and\n        /* \"contracts/FundMe.sol\":1369:1379  msg.sender */\n      caller\n        /* \"contracts/FundMe.sol\":1369:1390  msg.sender != i_owner */\n      0xffffffffffffffffffffffffffffffffffffffff\n      and\n      eq\n        /* \"contracts/FundMe.sol\":1365:1419  if (msg.sender != i_owner) revert NotOwner(msg.sender) */\n      tag_44\n      jumpi\n        /* \"contracts/FundMe.sol\":1408:1418  msg.sender */\n      caller\n        /* \"contracts/FundMe.sol\":1399:1419  NotOwner(msg.sender) */\n      mload(0x40)\n      0x245aecd300000000000000000000000000000000000000000000000000000000\n      dup2\n      mstore\n      0x04\n      add\n      tag_45\n      swap2\n      swap1\n      tag_34\n      jump\t// in\n    tag_45:\n      mload(0x40)\n      dup1\n      swap2\n      sub\n      swap1\n      revert\n        /* \"contracts/FundMe.sol\":1365:1419  if (msg.sender != i_owner) revert NotOwner(msg.sender) */\n    tag_44:\n        /* \"contracts/FundMe.sol\":959:972  uint256 index */\n      0x00\n        /* \"contracts/FundMe.sol\":954:1116  for (uint256 index = 0; index < funders.length; index++){... */\n    tag_47:\n        /* \"contracts/FundMe.sol\":986:993  funders */\n      0x00\n        /* \"contracts/FundMe.sol\":986:1000  funders.length */\n      dup1\n      sload\n      swap1\n      pop\n        /* \"contracts/FundMe.sol\":978:983  index */\n      dup2\n        /* \"contracts/FundMe.sol\":978:1000  index < funders.length */\n      lt\n        /* \"contracts/FundMe.sol\":954:1116  for (uint256 index = 0; index < funders.length; index++){... */\n      iszero\n      tag_48\n      jumpi\n        /* \"contracts/FundMe.sol\":1025:1039  address funder */\n      0x00\n        /* \"contracts/FundMe.sol\":1042:1049  funders */\n      dup1\n        /* \"contracts/FundMe.sol\":1050:1055  index */\n      dup3\n        /* \"contracts/FundMe.sol\":1042:1056  funders[index] */\n      dup2\n      sload\n      dup2\n      lt\n      tag_50\n      jumpi\n      tag_51\n      tag_52\n      jump\t// in\n    tag_51:\n    tag_50:\n      swap1\n      0x00\n      mstore\n      keccak256(0x00, 0x20)\n      add\n      0x00\n      swap1\n      sload\n      swap1\n      0x0100\n      exp\n      swap1\n      div\n      0xffffffffffffffffffffffffffffffffffffffff\n      and\n        /* \"contracts/FundMe.sol\":1025:1056  address funder = funders[index] */\n      swap1\n      pop\n        /* \"contracts/FundMe.sol\":1103:1104  0 */\n      0x00\n        /* \"contracts/FundMe.sol\":1071:1092  addressToAmountFunded */\n      0x01\n        /* \"contracts/FundMe.sol\":1071:1100  addressToAmountFunded[funder] */\n      0x00\n        /* \"contracts/FundMe.sol\":1093:1099  funder */\n      dup4\n        /* \"contracts/FundMe.sol\":1071:1100  addressToAmountFunded[funder] */\n      0xffffffffffffffffffffffffffffffffffffffff\n      and\n      0xffffffffffffffffffffffffffffffffffffffff\n      and\n      dup2\n      mstore\n      0x20\n      add\n      swap1\n      dup2\n      mstore\n      0x20\n      add\n      0x00\n      keccak256\n        /* \"contracts/FundMe.sol\":1071:1104  addressToAmountFunded[funder] = 0 */\n      dup2\n      swap1\n      sstore\n      pop\n        /* \"contracts/FundMe.sol\":1010:1116  {... */\n      pop\n        /* \"contracts/FundMe.sol\":1002:1009  index++ */\n      dup1\n      dup1\n      0x01\n      add\n      swap2\n      pop\n      pop\n        /* \"contracts/FundMe.sol\":954:1116  for (uint256 index = 0; index < funders.length; index++){... */\n      jump(tag_47)\n    tag_48:\n      pop\n        /* \"contracts/FundMe.sol\":1150:1151  0 */\n      0x00\n        /* \"contracts/FundMe.sol\":1136:1152  new address[](0) */\n      0xffffffffffffffff\n      dup2\n      gt\n      iszero\n      tag_54\n      jumpi\n      tag_55\n      tag_56\n      jump\t// in\n    tag_55:\n    tag_54:\n      mload(0x40)\n      swap1\n      dup1\n      dup3\n      mstore\n      dup1\n      0x20\n      mul\n      0x20\n      add\n      dup3\n      add\n      0x40\n      mstore\n      dup1\n      iszero\n      tag_57\n      jumpi\n      dup2\n      0x20\n      add\n      0x20\n      dup3\n      mul\n      dup1\n      calldatasize\n      dup4\n      calldatacopy\n      dup1\n      dup3\n      add\n      swap2\n      pop\n      pop\n      swap1\n      pop\n    tag_57:\n      pop\n        /* \"contracts/FundMe.sol\":1126:1133  funders */\n      0x00\n        /* \"contracts/FundMe.sol\":1126:1152  funders = new address[](0) */\n      swap1\n      dup1\n      mload\n      swap1\n      0x20\n      add\n      swap1\n      tag_58\n      swap3\n      swap2\n      swap1\n      tag_59\n      jump\t// in\n    tag_58:\n      pop\n        /* \"contracts/FundMe.sol\":1164:1180  bool callSuccess */\n      0x00\n        /* \"contracts/FundMe.sol\":1194:1204  msg.sender */\n      caller\n        /* \"contracts/FundMe.sol\":1186:1210  payable(msg.sender).call */\n      0xffffffffffffffffffffffffffffffffffffffff\n      and\n        /* \"contracts/FundMe.sol\":1218:1239  address(this).balance */\n      selfbalance\n        /* \"contracts/FundMe.sol\":1186:1244  payable(msg.sender).call{value: address(this).balance}(\"\") */\n      mload(0x40)\n      tag_60\n      swap1\n      tag_61\n      jump\t// in\n    tag_60:\n      0x00\n      mload(0x40)\n      dup1\n      dup4\n      sub\n      dup2\n      dup6\n      dup8\n      gas\n      call\n      swap3\n      pop\n      pop\n      pop\n      returndatasize\n      dup1\n      0x00\n      dup2\n      eq\n      tag_64\n      jumpi\n      mload(0x40)\n      swap2\n      pop\n      and(add(returndatasize, 0x3f), not(0x1f))\n      dup3\n      add\n      0x40\n      mstore\n      returndatasize\n      dup3\n      mstore\n      returndatasize\n      0x00\n      0x20\n      dup5\n      add\n      returndatacopy\n      jump(tag_63)\n    tag_64:\n      0x60\n      swap2\n      pop\n    tag_63:\n      pop\n        /* \"contracts/FundMe.sol\":1163:1244  (bool callSuccess, ) = payable(msg.sender).call{value: address(this).balance}(\"\") */\n      pop\n      swap1\n      pop\n        /* \"contracts/FundMe.sol\":1260:1271  callSuccess */\n      dup1\n        /* \"contracts/FundMe.sol\":1255:1317  if (!callSuccess) revert WithdrawFailed(address(this).balance) */\n      tag_65\n      jumpi\n        /* \"contracts/FundMe.sol\":1295:1316  address(this).balance */\n      selfbalance\n        /* \"contracts/FundMe.sol\":1280:1317  WithdrawFailed(address(this).balance) */\n      mload(0x40)\n      0x51fe4a3400000000000000000000000000000000000000000000000000000000\n      dup2\n      mstore\n      0x04\n      add\n      tag_66\n      swap2\n      swap1\n      tag_24\n      jump\t// in\n    tag_66:\n      mload(0x40)\n      dup1\n      swap2\n      sub\n      swap1\n      revert\n        /* \"contracts/FundMe.sol\":1255:1317  if (!callSuccess) revert WithdrawFailed(address(this).balance) */\n    tag_65:\n        /* \"contracts/FundMe.sol\":943:1325  {... */\n      pop\n        /* \"contracts/FundMe.sol\":906:1325  function withdraw() public onlyOwner {... */\n      jump\t// out\n        /* \"contracts/FundMe.sol\":400:477  mapping (address funder => uint256 amountFunded) public addressToAmountFunded */\n    tag_22:\n      mstore(0x20, 0x01)\n      dup1\n      0x00\n      mstore\n      keccak256(0x00, 0x40)\n      0x00\n      swap2\n      pop\n      swap1\n      pop\n      sload\n      dup2\n      jump\t// out\n        /* \"contracts/FundMe.sol\":325:367  uint256 public constant MINIMUM_USD = 5e18 */\n    tag_27:\n        /* \"contracts/FundMe.sol\":363:367  5e18 */\n      0x4563918244f40000\n        /* \"contracts/FundMe.sol\":325:367  uint256 public constant MINIMUM_USD = 5e18 */\n      dup2\n      jump\t// out\n        /* \"contracts/FundMe.sol\":486:518  address public immutable i_owner */\n    tag_32:\n      immutable(\"0x63867b8d5e748cf93e24f7b381d92337d037805bfc271d6d67e0e86772662677\")\n      dup2\n      jump\t// out\n        /* \"contracts/PriceConverter.sol\":543:765  function getConvertionRate(uint256 ethAmount) internal view returns (uint256){... */\n    tag_37:\n        /* \"contracts/PriceConverter.sol\":612:619  uint256 */\n      0x00\n        /* \"contracts/PriceConverter.sol\":631:647  uint256 ethPrice */\n      dup1\n        /* \"contracts/PriceConverter.sol\":650:660  getPrice() */\n      tag_68\n        /* \"contracts/PriceConverter.sol\":650:658  getPrice */\n      tag_69\n        /* \"contracts/PriceConverter.sol\":650:660  getPrice() */\n      jump\t// in\n    tag_68:\n        /* \"contracts/PriceConverter.sol\":631:660  uint256 ethPrice = getPrice() */\n      swap1\n      pop\n        /* \"contracts/PriceConverter.sol\":671:693  uint256 ethAmountInUSD */\n      0x00\n        /* \"contracts/PriceConverter.sol\":721:725  1e18 */\n      0x0de0b6b3a7640000\n        /* \"contracts/PriceConverter.sol\":708:717  ethAmount */\n      dup5\n        /* \"contracts/PriceConverter.sol\":697:705  ethPrice */\n      dup4\n        /* \"contracts/PriceConverter.sol\":697:717  ethPrice * ethAmount */\n      tag_70\n      swap2\n      swap1\n      tag_71\n      jump\t// in\n    tag_70:\n        /* \"contracts/PriceConverter.sol\":696:725  (ethPrice * ethAmount) / 1e18 */\n      tag_72\n      swap2\n      swap1\n      tag_73\n      jump\t// in\n    tag_72:\n        /* \"contracts/PriceConverter.sol\":671:725  uint256 ethAmountInUSD = (ethPrice * ethAmount) / 1e18 */\n      swap1\n      pop\n        /* \"contracts/PriceConverter.sol\":743:757  ethAmountInUSD */\n      dup1\n        /* \"contracts/PriceConverter.sol\":736:757  return ethAmountInUSD */\n      swap3\n      pop\n      pop\n      pop\n        /* \"contracts/PriceConverter.sol\":543:765  function getConvertionRate(uint256 ethAmount) internal view returns (uint256){... */\n      swap2\n      swap1\n      pop\n      jump\t// out\n        /* \"contracts/PriceConverter.sol\":214:535  function getPrice() internal view returns (uint256){... */\n    tag_69:\n        /* \"contracts/PriceConverter.sol\":257:264  uint256 */\n      0x00\n        /* \"contracts/PriceConverter.sol\":276:307  AggregatorV3Interface priceFeed */\n      dup1\n        /* \"contracts/PriceConverter.sol\":332:374  0x694AA1769357215DE4FAC081bf1f309aDC325306 */\n      0x694aa1769357215de4fac081bf1f309adc325306\n        /* \"contracts/PriceConverter.sol\":276:375  AggregatorV3Interface priceFeed = AggregatorV3Interface(0x694AA1769357215DE4FAC081bf1f309aDC325306) */\n      swap1\n      pop\n        /* \"contracts/PriceConverter.sol\":388:400  int256 price */\n      0x00\n        /* \"contracts/PriceConverter.sol\":407:416  priceFeed */\n      dup2\n        /* \"contracts/PriceConverter.sol\":407:432  priceFeed.latestRoundData */\n      0xffffffffffffffffffffffffffffffffffffffff\n      and\n      0xfeaf968c\n        /* \"contracts/PriceConverter.sol\":407:434  priceFeed.latestRoundData() */\n      mload(0x40)\n      dup2\n      0xffffffff\n      and\n      0xe0\n      shl\n      dup2\n      mstore\n      0x04\n      add\n      0xa0\n      mload(0x40)\n      dup1\n      dup4\n      sub\n      dup2\n      dup7\n      gas\n      staticcall\n      iszero\n      dup1\n      iszero\n      tag_76\n      jumpi\n      returndatasize\n      0x00\n      dup1\n      returndatacopy\n      revert(0x00, returndatasize)\n    tag_76:\n      pop\n      pop\n      pop\n      pop\n      mload(0x40)\n      returndatasize\n      not(0x1f)\n      0x1f\n      dup3\n      add\n      and\n      dup3\n      add\n      dup1\n      0x40\n      mstore\n      pop\n      dup2\n      add\n      swap1\n      tag_77\n      swap2\n      swap1\n      tag_78\n      jump\t// in\n    tag_77:\n        /* \"contracts/PriceConverter.sol\":386:434  (,int256 price,,,) = priceFeed.latestRoundData() */\n      pop\n      pop\n      pop\n      swap2\n      pop\n      pop\n        /* \"contracts/PriceConverter.sol\":522:526  1e10 */\n      0x02540be400\n        /* \"contracts/PriceConverter.sol\":513:518  price */\n      dup2\n        /* \"contracts/PriceConverter.sol\":505:526  uint256(price) * 1e10 */\n      tag_79\n      swap2\n      swap1\n      tag_71\n      jump\t// in\n    tag_79:\n        /* \"contracts/PriceConverter.sol\":498:526  return uint256(price) * 1e10 */\n      swap3\n      pop\n      pop\n      pop\n        /* \"contracts/PriceConverter.sol\":214:535  function getPrice() internal view returns (uint256){... */\n      swap1\n      jump\t// out\n    tag_59:\n      dup3\n      dup1\n      sload\n      dup3\n      dup3\n      sstore\n      swap1\n      0x00\n      mstore\n      keccak256(0x00, 0x20)\n      swap1\n      dup2\n      add\n      swap3\n      dup3\n      iszero\n      tag_80\n      jumpi\n      swap2\n      0x20\n      mul\n      dup3\n      add\n    tag_81:\n      dup3\n      dup2\n      gt\n      iszero\n      tag_82\n      jumpi\n      dup3\n      mload\n      dup3\n      exp(0x0100, 0x00)\n      dup2\n      sload\n      dup2\n      0xffffffffffffffffffffffffffffffffffffffff\n      mul\n      not\n      and\n      swap1\n      dup4\n      0xffffffffffffffffffffffffffffffffffffffff\n      and\n      mul\n      or\n      swap1\n      sstore\n      pop\n      swap2\n      0x20\n      add\n      swap2\n      swap1\n      0x01\n      add\n      swap1\n      jump(tag_81)\n    tag_82:\n    tag_80:\n      pop\n      swap1\n      pop\n      tag_83\n      swap2\n      swap1\n      tag_84\n      jump\t// in\n    tag_83:\n      pop\n      swap1\n      jump\t// out\n    tag_84:\n    tag_85:\n      dup1\n      dup3\n      gt\n      iszero\n      tag_86\n      jumpi\n      0x00\n      dup2\n      0x00\n      swap1\n      sstore\n      pop\n      0x01\n      add\n      jump(tag_85)\n    tag_86:\n      pop\n      swap1\n      jump\t// out\n        /* \"#utility.yul\":88:205   */\n    tag_88:\n        /* \"#utility.yul\":197:198   */\n      0x00\n        /* \"#utility.yul\":194:195   */\n      dup1\n        /* \"#utility.yul\":187:199   */\n      revert\n        /* \"#utility.yul\":334:460   */\n    tag_90:\n        /* \"#utility.yul\":371:378   */\n      0x00\n        /* \"#utility.yul\":411:453   */\n      0xffffffffffffffffffffffffffffffffffffffff\n        /* \"#utility.yul\":404:409   */\n      dup3\n        /* \"#utility.yul\":400:454   */\n      and\n        /* \"#utility.yul\":389:454   */\n      swap1\n      pop\n        /* \"#utility.yul\":334:460   */\n      swap2\n      swap1\n      pop\n      jump\t// out\n        /* \"#utility.yul\":466:562   */\n    tag_91:\n        /* \"#utility.yul\":503:510   */\n      0x00\n        /* \"#utility.yul\":532:556   */\n      tag_116\n        /* \"#utility.yul\":550:555   */\n      dup3\n        /* \"#utility.yul\":532:556   */\n      tag_90\n      jump\t// in\n    tag_116:\n        /* \"#utility.yul\":521:556   */\n      swap1\n      pop\n        /* \"#utility.yul\":466:562   */\n      swap2\n      swap1\n      pop\n      jump\t// out\n        /* \"#utility.yul\":568:690   */\n    tag_92:\n        /* \"#utility.yul\":641:665   */\n      tag_118\n        /* \"#utility.yul\":659:664   */\n      dup2\n        /* \"#utility.yul\":641:665   */\n      tag_91\n      jump\t// in\n    tag_118:\n        /* \"#utility.yul\":634:639   */\n      dup2\n        /* \"#utility.yul\":631:666   */\n      eq\n        /* \"#utility.yul\":621:684   */\n      tag_119\n      jumpi\n        /* \"#utility.yul\":680:681   */\n      0x00\n        /* \"#utility.yul\":677:678   */\n      dup1\n        /* \"#utility.yul\":670:682   */\n      revert\n        /* \"#utility.yul\":621:684   */\n    tag_119:\n        /* \"#utility.yul\":568:690   */\n      pop\n      jump\t// out\n        /* \"#utility.yul\":696:835   */\n    tag_93:\n        /* \"#utility.yul\":742:747   */\n      0x00\n        /* \"#utility.yul\":780:786   */\n      dup2\n        /* \"#utility.yul\":767:787   */\n      calldataload\n        /* \"#utility.yul\":758:787   */\n      swap1\n      pop\n        /* \"#utility.yul\":796:829   */\n      tag_121\n        /* \"#utility.yul\":823:828   */\n      dup2\n        /* \"#utility.yul\":796:829   */\n      tag_92\n      jump\t// in\n    tag_121:\n        /* \"#utility.yul\":696:835   */\n      swap3\n      swap2\n      pop\n      pop\n      jump\t// out\n        /* \"#utility.yul\":841:1170   */\n    tag_21:\n        /* \"#utility.yul\":900:906   */\n      0x00\n        /* \"#utility.yul\":949:951   */\n      0x20\n        /* \"#utility.yul\":937:946   */\n      dup3\n        /* \"#utility.yul\":928:935   */\n      dup5\n        /* \"#utility.yul\":924:947   */\n      sub\n        /* \"#utility.yul\":920:952   */\n      slt\n        /* \"#utility.yul\":917:1036   */\n      iszero\n      tag_123\n      jumpi\n        /* \"#utility.yul\":955:1034   */\n      tag_124\n      tag_88\n      jump\t// in\n    tag_124:\n        /* \"#utility.yul\":917:1036   */\n    tag_123:\n        /* \"#utility.yul\":1075:1076   */\n      0x00\n        /* \"#utility.yul\":1100:1153   */\n      tag_125\n        /* \"#utility.yul\":1145:1152   */\n      dup5\n        /* \"#utility.yul\":1136:1142   */\n      dup3\n        /* \"#utility.yul\":1125:1134   */\n      dup6\n        /* \"#utility.yul\":1121:1143   */\n      add\n        /* \"#utility.yul\":1100:1153   */\n      tag_93\n      jump\t// in\n    tag_125:\n        /* \"#utility.yul\":1090:1153   */\n      swap2\n      pop\n        /* \"#utility.yul\":1046:1163   */\n      pop\n        /* \"#utility.yul\":841:1170   */\n      swap3\n      swap2\n      pop\n      pop\n      jump\t// out\n        /* \"#utility.yul\":1176:1253   */\n    tag_94:\n        /* \"#utility.yul\":1213:1220   */\n      0x00\n        /* \"#utility.yul\":1242:1247   */\n      dup2\n        /* \"#utility.yul\":1231:1247   */\n      swap1\n      pop\n        /* \"#utility.yul\":1176:1253   */\n      swap2\n      swap1\n      pop\n      jump\t// out\n        /* \"#utility.yul\":1259:1377   */\n    tag_95:\n        /* \"#utility.yul\":1346:1370   */\n      tag_128\n        /* \"#utility.yul\":1364:1369   */\n      dup2\n        /* \"#utility.yul\":1346:1370   */\n      tag_94\n      jump\t// in\n    tag_128:\n        /* \"#utility.yul\":1341:1344   */\n      dup3\n        /* \"#utility.yul\":1334:1371   */\n      mstore\n        /* \"#utility.yul\":1259:1377   */\n      pop\n      pop\n      jump\t// out\n        /* \"#utility.yul\":1383:1605   */\n    tag_24:\n        /* \"#utility.yul\":1476:1480   */\n      0x00\n        /* \"#utility.yul\":1514:1516   */\n      0x20\n        /* \"#utility.yul\":1503:1512   */\n      dup3\n        /* \"#utility.yul\":1499:1517   */\n      add\n        /* \"#utility.yul\":1491:1517   */\n      swap1\n      pop\n        /* \"#utility.yul\":1527:1598   */\n      tag_130\n        /* \"#utility.yul\":1595:1596   */\n      0x00\n        /* \"#utility.yul\":1584:1593   */\n      dup4\n        /* \"#utility.yul\":1580:1597   */\n      add\n        /* \"#utility.yul\":1571:1577   */\n      dup5\n        /* \"#utility.yul\":1527:1598   */\n      tag_95\n      jump\t// in\n    tag_130:\n        /* \"#utility.yul\":1383:1605   */\n      swap3\n      swap2\n      pop\n      pop\n      jump\t// out\n        /* \"#utility.yul\":1611:1729   */\n    tag_96:\n        /* \"#utility.yul\":1698:1722   */\n      tag_132\n        /* \"#utility.yul\":1716:1721   */\n      dup2\n        /* \"#utility.yul\":1698:1722   */\n      tag_91\n      jump\t// in\n    tag_132:\n        /* \"#utility.yul\":1693:1696   */\n      dup3\n        /* \"#utility.yul\":1686:1723   */\n      mstore\n        /* \"#utility.yul\":1611:1729   */\n      pop\n      pop\n      jump\t// out\n        /* \"#utility.yul\":1735:1957   */\n    tag_34:\n        /* \"#utility.yul\":1828:1832   */\n      0x00\n        /* \"#utility.yul\":1866:1868   */\n      0x20\n        /* \"#utility.yul\":1855:1864   */\n      dup3\n        /* \"#utility.yul\":1851:1869   */\n      add\n        /* \"#utility.yul\":1843:1869   */\n      swap1\n      pop\n        /* \"#utility.yul\":1879:1950   */\n      tag_134\n        /* \"#utility.yul\":1947:1948   */\n      0x00\n        /* \"#utility.yul\":1936:1945   */\n      dup4\n        /* \"#utility.yul\":1932:1949   */\n      add\n        /* \"#utility.yul\":1923:1929   */\n      dup5\n        /* \"#utility.yul\":1879:1950   */\n      tag_96\n      jump\t// in\n    tag_134:\n        /* \"#utility.yul\":1735:1957   */\n      swap3\n      swap2\n      pop\n      pop\n      jump\t// out\n        /* \"#utility.yul\":1963:2295   */\n    tag_40:\n        /* \"#utility.yul\":2084:2088   */\n      0x00\n        /* \"#utility.yul\":2122:2124   */\n      0x40\n        /* \"#utility.yul\":2111:2120   */\n      dup3\n        /* \"#utility.yul\":2107:2125   */\n      add\n        /* \"#utility.yul\":2099:2125   */\n      swap1\n      pop\n        /* \"#utility.yul\":2135:2206   */\n      tag_136\n        /* \"#utility.yul\":2203:2204   */\n      0x00\n        /* \"#utility.yul\":2192:2201   */\n      dup4\n        /* \"#utility.yul\":2188:2205   */\n      add\n        /* \"#utility.yul\":2179:2185   */\n      dup6\n        /* \"#utility.yul\":2135:2206   */\n      tag_95\n      jump\t// in\n    tag_136:\n        /* \"#utility.yul\":2216:2288   */\n      tag_137\n        /* \"#utility.yul\":2284:2286   */\n      0x20\n        /* \"#utility.yul\":2273:2282   */\n      dup4\n        /* \"#utility.yul\":2269:2287   */\n      add\n        /* \"#utility.yul\":2260:2266   */\n      dup5\n        /* \"#utility.yul\":2216:2288   */\n      tag_95\n      jump\t// in\n    tag_137:\n        /* \"#utility.yul\":1963:2295   */\n      swap4\n      swap3\n      pop\n      pop\n      pop\n      jump\t// out\n        /* \"#utility.yul\":2301:2481   */\n    tag_97:\n        /* \"#utility.yul\":2349:2426   */\n      0x4e487b7100000000000000000000000000000000000000000000000000000000\n        /* \"#utility.yul\":2346:2347   */\n      0x00\n        /* \"#utility.yul\":2339:2427   */\n      mstore\n        /* \"#utility.yul\":2446:2450   */\n      0x11\n        /* \"#utility.yul\":2443:2444   */\n      0x04\n        /* \"#utility.yul\":2436:2451   */\n      mstore\n        /* \"#utility.yul\":2470:2474   */\n      0x24\n        /* \"#utility.yul\":2467:2468   */\n      0x00\n        /* \"#utility.yul\":2460:2475   */\n      revert\n        /* \"#utility.yul\":2487:2678   */\n    tag_42:\n        /* \"#utility.yul\":2527:2530   */\n      0x00\n        /* \"#utility.yul\":2546:2566   */\n      tag_140\n        /* \"#utility.yul\":2564:2565   */\n      dup3\n        /* \"#utility.yul\":2546:2566   */\n      tag_94\n      jump\t// in\n    tag_140:\n        /* \"#utility.yul\":2541:2566   */\n      swap2\n      pop\n        /* \"#utility.yul\":2580:2600   */\n      tag_141\n        /* \"#utility.yul\":2598:2599   */\n      dup4\n        /* \"#utility.yul\":2580:2600   */\n      tag_94\n      jump\t// in\n    tag_141:\n        /* \"#utility.yul\":2575:2600   */\n      swap3\n      pop\n        /* \"#utility.yul\":2623:2624   */\n      dup3\n        /* \"#utility.yul\":2620:2621   */\n      dup3\n        /* \"#utility.yul\":2616:2625   */\n      add\n        /* \"#utility.yul\":2609:2625   */\n      swap1\n      pop\n        /* \"#utility.yul\":2644:2647   */\n      dup1\n        /* \"#utility.yul\":2641:2642   */\n      dup3\n        /* \"#utility.yul\":2638:2648   */\n      gt\n        /* \"#utility.yul\":2635:2671   */\n      iszero\n      tag_142\n      jumpi\n        /* \"#utility.yul\":2651:2669   */\n      tag_143\n      tag_97\n      jump\t// in\n    tag_143:\n        /* \"#utility.yul\":2635:2671   */\n    tag_142:\n        /* \"#utility.yul\":2487:2678   */\n      swap3\n      swap2\n      pop\n      pop\n      jump\t// out\n        /* \"#utility.yul\":2684:2864   */\n    tag_52:\n        /* \"#utility.yul\":2732:2809   */\n      0x4e487b7100000000000000000000000000000000000000000000000000000000\n        /* \"#utility.yul\":2729:2730   */\n      0x00\n        /* \"#utility.yul\":2722:2810   */\n      mstore\n        /* \"#utility.yul\":2829:2833   */\n      0x32\n        /* \"#utility.yul\":2826:2827   */\n      0x04\n        /* \"#utility.yul\":2819:2834   */\n      mstore\n        /* \"#utility.yul\":2853:2857   */\n      0x24\n        /* \"#utility.yul\":2850:2851   */\n      0x00\n        /* \"#utility.yul\":2843:2858   */\n      revert\n        /* \"#utility.yul\":2870:3050   */\n    tag_56:\n        /* \"#utility.yul\":2918:2995   */\n      0x4e487b7100000000000000000000000000000000000000000000000000000000\n        /* \"#utility.yul\":2915:2916   */\n      0x00\n        /* \"#utility.yul\":2908:2996   */\n      mstore\n        /* \"#utility.yul\":3015:3019   */\n      0x41\n        /* \"#utility.yul\":3012:3013   */\n      0x04\n        /* \"#utility.yul\":3005:3020   */\n      mstore\n        /* \"#utility.yul\":3039:3043   */\n      0x24\n        /* \"#utility.yul\":3036:3037   */\n      0x00\n        /* \"#utility.yul\":3029:3044   */\n      revert\n        /* \"#utility.yul\":3056:3203   */\n    tag_98:\n        /* \"#utility.yul\":3157:3168   */\n      0x00\n        /* \"#utility.yul\":3194:3197   */\n      dup2\n        /* \"#utility.yul\":3179:3197   */\n      swap1\n      pop\n        /* \"#utility.yul\":3056:3203   */\n      swap3\n      swap2\n      pop\n      pop\n      jump\t// out\n        /* \"#utility.yul\":3209:3323   */\n    tag_99:\n      pop\n      jump\t// out\n        /* \"#utility.yul\":3329:3727   */\n    tag_100:\n        /* \"#utility.yul\":3488:3491   */\n      0x00\n        /* \"#utility.yul\":3509:3592   */\n      tag_149\n        /* \"#utility.yul\":3590:3591   */\n      0x00\n        /* \"#utility.yul\":3585:3588   */\n      dup4\n        /* \"#utility.yul\":3509:3592   */\n      tag_98\n      jump\t// in\n    tag_149:\n        /* \"#utility.yul\":3502:3592   */\n      swap2\n      pop\n        /* \"#utility.yul\":3601:3694   */\n      tag_150\n        /* \"#utility.yul\":3690:3693   */\n      dup3\n        /* \"#utility.yul\":3601:3694   */\n      tag_99\n      jump\t// in\n    tag_150:\n        /* \"#utility.yul\":3719:3720   */\n      0x00\n        /* \"#utility.yul\":3714:3717   */\n      dup3\n        /* \"#utility.yul\":3710:3721   */\n      add\n        /* \"#utility.yul\":3703:3721   */\n      swap1\n      pop\n        /* \"#utility.yul\":3329:3727   */\n      swap2\n      swap1\n      pop\n      jump\t// out\n        /* \"#utility.yul\":3733:4112   */\n    tag_61:\n        /* \"#utility.yul\":3917:3920   */\n      0x00\n        /* \"#utility.yul\":3939:4086   */\n      tag_152\n        /* \"#utility.yul\":4082:4085   */\n      dup3\n        /* \"#utility.yul\":3939:4086   */\n      tag_100\n      jump\t// in\n    tag_152:\n        /* \"#utility.yul\":3932:4086   */\n      swap2\n      pop\n        /* \"#utility.yul\":4103:4106   */\n      dup2\n        /* \"#utility.yul\":4096:4106   */\n      swap1\n      pop\n        /* \"#utility.yul\":3733:4112   */\n      swap2\n      swap1\n      pop\n      jump\t// out\n        /* \"#utility.yul\":4118:4528   */\n    tag_71:\n        /* \"#utility.yul\":4158:4165   */\n      0x00\n        /* \"#utility.yul\":4181:4201   */\n      tag_154\n        /* \"#utility.yul\":4199:4200   */\n      dup3\n        /* \"#utility.yul\":4181:4201   */\n      tag_94\n      jump\t// in\n    tag_154:\n        /* \"#utility.yul\":4176:4201   */\n      swap2\n      pop\n        /* \"#utility.yul\":4215:4235   */\n      tag_155\n        /* \"#utility.yul\":4233:4234   */\n      dup4\n        /* \"#utility.yul\":4215:4235   */\n      tag_94\n      jump\t// in\n    tag_155:\n        /* \"#utility.yul\":4210:4235   */\n      swap3\n      pop\n        /* \"#utility.yul\":4270:4271   */\n      dup3\n        /* \"#utility.yul\":4267:4268   */\n      dup3\n        /* \"#utility.yul\":4263:4272   */\n      mul\n        /* \"#utility.yul\":4292:4322   */\n      tag_156\n        /* \"#utility.yul\":4310:4321   */\n      dup2\n        /* \"#utility.yul\":4292:4322   */\n      tag_94\n      jump\t// in\n    tag_156:\n        /* \"#utility.yul\":4281:4322   */\n      swap2\n      pop\n        /* \"#utility.yul\":4471:4472   */\n      dup3\n        /* \"#utility.yul\":4462:4469   */\n      dup3\n        /* \"#utility.yul\":4458:4473   */\n      div\n        /* \"#utility.yul\":4455:4456   */\n      dup5\n        /* \"#utility.yul\":4452:4474   */\n      eq\n        /* \"#utility.yul\":4432:4433   */\n      dup4\n        /* \"#utility.yul\":4425:4434   */\n      iszero\n        /* \"#utility.yul\":4405:4488   */\n      or\n        /* \"#utility.yul\":4382:4521   */\n      tag_157\n      jumpi\n        /* \"#utility.yul\":4501:4519   */\n      tag_158\n      tag_97\n      jump\t// in\n    tag_158:\n        /* \"#utility.yul\":4382:4521   */\n    tag_157:\n        /* \"#utility.yul\":4166:4528   */\n      pop\n        /* \"#utility.yul\":4118:4528   */\n      swap3\n      swap2\n      pop\n      pop\n      jump\t// out\n        /* \"#utility.yul\":4534:4714   */\n    tag_101:\n        /* \"#utility.yul\":4582:4659   */\n      0x4e487b7100000000000000000000000000000000000000000000000000000000\n        /* \"#utility.yul\":4579:4580   */\n      0x00\n        /* \"#utility.yul\":4572:4660   */\n      mstore\n        /* \"#utility.yul\":4679:4683   */\n      0x12\n        /* \"#utility.yul\":4676:4677   */\n      0x04\n        /* \"#utility.yul\":4669:4684   */\n      mstore\n        /* \"#utility.yul\":4703:4707   */\n      0x24\n        /* \"#utility.yul\":4700:4701   */\n      0x00\n        /* \"#utility.yul\":4693:4708   */\n      revert\n        /* \"#utility.yul\":4720:4905   */\n    tag_73:\n        /* \"#utility.yul\":4760:4761   */\n      0x00\n        /* \"#utility.yul\":4777:4797   */\n      tag_161\n        /* \"#utility.yul\":4795:4796   */\n      dup3\n        /* \"#utility.yul\":4777:4797   */\n      tag_94\n      jump\t// in\n    tag_161:\n        /* \"#utility.yul\":4772:4797   */\n      swap2\n      pop\n        /* \"#utility.yul\":4811:4831   */\n      tag_162\n        /* \"#utility.yul\":4829:4830   */\n      dup4\n        /* \"#utility.yul\":4811:4831   */\n      tag_94\n      jump\t// in\n    tag_162:\n        /* \"#utility.yul\":4806:4831   */\n      swap3\n      pop\n        /* \"#utility.yul\":4850:4851   */\n      dup3\n        /* \"#utility.yul\":4840:4875   */\n      tag_163\n      jumpi\n        /* \"#utility.yul\":4855:4873   */\n      tag_164\n      tag_101\n      jump\t// in\n    tag_164:\n        /* \"#utility.yul\":4840:4875   */\n    tag_163:\n        /* \"#utility.yul\":4897:4898   */\n      dup3\n        /* \"#utility.yul\":4894:4895   */\n      dup3\n        /* \"#utility.yul\":4890:4899   */\n      div\n        /* \"#utility.yul\":4885:4899   */\n      swap1\n      pop\n        /* \"#utility.yul\":4720:4905   */\n      swap3\n      swap2\n      pop\n      pop\n      jump\t// out\n        /* \"#utility.yul\":4911:5016   */\n    tag_102:\n        /* \"#utility.yul\":4947:4954   */\n      0x00\n        /* \"#utility.yul\":4987:5009   */\n      0xffffffffffffffffffff\n        /* \"#utility.yul\":4980:4985   */\n      dup3\n        /* \"#utility.yul\":4976:5010   */\n      and\n        /* \"#utility.yul\":4965:5010   */\n      swap1\n      pop\n        /* \"#utility.yul\":4911:5016   */\n      swap2\n      swap1\n      pop\n      jump\t// out\n        /* \"#utility.yul\":5022:5142   */\n    tag_103:\n        /* \"#utility.yul\":5094:5117   */\n      tag_167\n        /* \"#utility.yul\":5111:5116   */\n      dup2\n        /* \"#utility.yul\":5094:5117   */\n      tag_102\n      jump\t// in\n    tag_167:\n        /* \"#utility.yul\":5087:5092   */\n      dup2\n        /* \"#utility.yul\":5084:5118   */\n      eq\n        /* \"#utility.yul\":5074:5136   */\n      tag_168\n      jumpi\n        /* \"#utility.yul\":5132:5133   */\n      0x00\n        /* \"#utility.yul\":5129:5130   */\n      dup1\n        /* \"#utility.yul\":5122:5134   */\n      revert\n        /* \"#utility.yul\":5074:5136   */\n    tag_168:\n        /* \"#utility.yul\":5022:5142   */\n      pop\n      jump\t// out\n        /* \"#utility.yul\":5148:5289   */\n    tag_104:\n        /* \"#utility.yul\":5204:5209   */\n      0x00\n        /* \"#utility.yul\":5235:5241   */\n      dup2\n        /* \"#utility.yul\":5229:5242   */\n      mload\n        /* \"#utility.yul\":5220:5242   */\n      swap1\n      pop\n        /* \"#utility.yul\":5251:5283   */\n      tag_170\n        /* \"#utility.yul\":5277:5282   */\n      dup2\n        /* \"#utility.yul\":5251:5283   */\n      tag_103\n      jump\t// in\n    tag_170:\n        /* \"#utility.yul\":5148:5289   */\n      swap3\n      swap2\n      pop\n      pop\n      jump\t// out\n        /* \"#utility.yul\":5295:5371   */\n    tag_105:\n        /* \"#utility.yul\":5331:5338   */\n      0x00\n        /* \"#utility.yul\":5360:5365   */\n      dup2\n        /* \"#utility.yul\":5349:5365   */\n      swap1\n      pop\n        /* \"#utility.yul\":5295:5371   */\n      swap2\n      swap1\n      pop\n      jump\t// out\n        /* \"#utility.yul\":5377:5497   */\n    tag_106:\n        /* \"#utility.yul\":5449:5472   */\n      tag_173\n        /* \"#utility.yul\":5466:5471   */\n      dup2\n        /* \"#utility.yul\":5449:5472   */\n      tag_105\n      jump\t// in\n    tag_173:\n        /* \"#utility.yul\":5442:5447   */\n      dup2\n        /* \"#utility.yul\":5439:5473   */\n      eq\n        /* \"#utility.yul\":5429:5491   */\n      tag_174\n      jumpi\n        /* \"#utility.yul\":5487:5488   */\n      0x00\n        /* \"#utility.yul\":5484:5485   */\n      dup1\n        /* \"#utility.yul\":5477:5489   */\n      revert\n        /* \"#utility.yul\":5429:5491   */\n    tag_174:\n        /* \"#utility.yul\":5377:5497   */\n      pop\n      jump\t// out\n        /* \"#utility.yul\":5503:5644   */\n    tag_107:\n        /* \"#utility.yul\":5559:5564   */\n      0x00\n        /* \"#utility.yul\":5590:5596   */\n      dup2\n        /* \"#utility.yul\":5584:5597   */\n      mload\n        /* \"#utility.yul\":5575:5597   */\n      swap1\n      pop\n        /* \"#utility.yul\":5606:5638   */\n      tag_176\n        /* \"#utility.yul\":5632:5637   */\n      dup2\n        /* \"#utility.yul\":5606:5638   */\n      tag_106\n      jump\t// in\n    tag_176:\n        /* \"#utility.yul\":5503:5644   */\n      swap3\n      swap2\n      pop\n      pop\n      jump\t// out\n        /* \"#utility.yul\":5650:5772   */\n    tag_108:\n        /* \"#utility.yul\":5723:5747   */\n      tag_178\n        /* \"#utility.yul\":5741:5746   */\n      dup2\n        /* \"#utility.yul\":5723:5747   */\n      tag_94\n      jump\t// in\n    tag_178:\n        /* \"#utility.yul\":5716:5721   */\n      dup2\n        /* \"#utility.yul\":5713:5748   */\n      eq\n        /* \"#utility.yul\":5703:5766   */\n      tag_179\n      jumpi\n        /* \"#utility.yul\":5762:5763   */\n      0x00\n        /* \"#utility.yul\":5759:5760   */\n      dup1\n        /* \"#utility.yul\":5752:5764   */\n      revert\n        /* \"#utility.yul\":5703:5766   */\n    tag_179:\n        /* \"#utility.yul\":5650:5772   */\n      pop\n      jump\t// out\n        /* \"#utility.yul\":5778:5921   */\n    tag_109:\n        /* \"#utility.yul\":5835:5840   */\n      0x00\n        /* \"#utility.yul\":5866:5872   */\n      dup2\n        /* \"#utility.yul\":5860:5873   */\n      mload\n        /* \"#utility.yul\":5851:5873   */\n      swap1\n      pop\n        /* \"#utility.yul\":5882:5915   */\n      tag_181\n        /* \"#utility.yul\":5909:5914   */\n      dup2\n        /* \"#utility.yul\":5882:5915   */\n      tag_108\n      jump\t// in\n    tag_181:\n        /* \"#utility.yul\":5778:5921   */\n      swap3\n      swap2\n      pop\n      pop\n      jump\t// out\n        /* \"#utility.yul\":5927:6898   */\n    tag_78:\n        /* \"#utility.yul\":6030:6036   */\n      0x00\n        /* \"#utility.yul\":6038:6044   */\n      dup1\n        /* \"#utility.yul\":6046:6052   */\n      0x00\n        /* \"#utility.yul\":6054:6060   */\n      dup1\n        /* \"#utility.yul\":6062:6068   */\n      0x00\n        /* \"#utility.yul\":6111:6114   */\n      0xa0\n        /* \"#utility.yul\":6099:6108   */\n      dup7\n        /* \"#utility.yul\":6090:6097   */\n      dup9\n        /* \"#utility.yul\":6086:6109   */\n      sub\n        /* \"#utility.yul\":6082:6115   */\n      slt\n        /* \"#utility.yul\":6079:6199   */\n      iszero\n      tag_183\n      jumpi\n        /* \"#utility.yul\":6118:6197   */\n      tag_184\n      tag_88\n      jump\t// in\n    tag_184:\n        /* \"#utility.yul\":6079:6199   */\n    tag_183:\n        /* \"#utility.yul\":6238:6239   */\n      0x00\n        /* \"#utility.yul\":6263:6326   */\n      tag_185\n        /* \"#utility.yul\":6318:6325   */\n      dup9\n        /* \"#utility.yul\":6309:6315   */\n      dup3\n        /* \"#utility.yul\":6298:6307   */\n      dup10\n        /* \"#utility.yul\":6294:6316   */\n      add\n        /* \"#utility.yul\":6263:6326   */\n      tag_104\n      jump\t// in\n    tag_185:\n        /* \"#utility.yul\":6253:6326   */\n      swap6\n      pop\n        /* \"#utility.yul\":6209:6336   */\n      pop\n        /* \"#utility.yul\":6375:6377   */\n      0x20\n        /* \"#utility.yul\":6401:6464   */\n      tag_186\n        /* \"#utility.yul\":6456:6463   */\n      dup9\n        /* \"#utility.yul\":6447:6453   */\n      dup3\n        /* \"#utility.yul\":6436:6445   */\n      dup10\n        /* \"#utility.yul\":6432:6454   */\n      add\n        /* \"#utility.yul\":6401:6464   */\n      tag_107\n      jump\t// in\n    tag_186:\n        /* \"#utility.yul\":6391:6464   */\n      swap5\n      pop\n        /* \"#utility.yul\":6346:6474   */\n      pop\n        /* \"#utility.yul\":6513:6515   */\n      0x40\n        /* \"#utility.yul\":6539:6603   */\n      tag_187\n        /* \"#utility.yul\":6595:6602   */\n      dup9\n        /* \"#utility.yul\":6586:6592   */\n      dup3\n        /* \"#utility.yul\":6575:6584   */\n      dup10\n        /* \"#utility.yul\":6571:6593   */\n      add\n        /* \"#utility.yul\":6539:6603   */\n      tag_109\n      jump\t// in\n    tag_187:\n        /* \"#utility.yul\":6529:6603   */\n      swap4\n      pop\n        /* \"#utility.yul\":6484:6613   */\n      pop\n        /* \"#utility.yul\":6652:6654   */\n      0x60\n        /* \"#utility.yul\":6678:6742   */\n      tag_188\n        /* \"#utility.yul\":6734:6741   */\n      dup9\n        /* \"#utility.yul\":6725:6731   */\n      dup3\n        /* \"#utility.yul\":6714:6723   */\n      dup10\n        /* \"#utility.yul\":6710:6732   */\n      add\n        /* \"#utility.yul\":6678:6742   */\n      tag_109\n      jump\t// in\n    tag_188:\n        /* \"#utility.yul\":6668:6742   */\n      swap3\n      pop\n        /* \"#utility.yul\":6623:6752   */\n      pop\n        /* \"#utility.yul\":6791:6794   */\n      0x80\n        /* \"#utility.yul\":6818:6881   */\n      tag_189\n        /* \"#utility.yul\":6873:6880   */\n      dup9\n        /* \"#utility.yul\":6864:6870   */\n      dup3\n        /* \"#utility.yul\":6853:6862   */\n      dup10\n        /* \"#utility.yul\":6849:6871   */\n      add\n        /* \"#utility.yul\":6818:6881   */\n      tag_104\n      jump\t// in\n    tag_189:\n        /* \"#utility.yul\":6808:6881   */\n      swap2\n      pop\n        /* \"#utility.yul\":6762:6891   */\n      pop\n        /* \"#utility.yul\":5927:6898   */\n      swap3\n      swap6\n      pop\n      swap3\n      swap6\n      swap1\n      swap4\n      pop\n      jump\t// out\n\n    auxdata: 0xa264697066735822122097a99d1e038c5623f271d2e3a7b7e6d983f0250d5cd7662f15cfc5776718893064736f6c63430008180033\n}\n",
				"bytecode": {
					"linkReferences": {},
					"object": "60a060405234801561000f575f80fd5b503373ffffffffffffffffffffffffffffffffffffffff1660808173ffffffffffffffffffffffffffffffffffffffff16815250506080516109b66100635f395f81816101d1015261042a01526109b65ff3fe60806040526004361061004d575f3560e01c80633ccfd60b146100665780633e47d6f31461007c5780636b69a592146100b8578063b60d4288146100e2578063dba6335f146100ec5761005c565b3661005c5761005a610116565b005b610064610116565b005b348015610071575f80fd5b5061007a6101cf565b005b348015610087575f80fd5b506100a2600480360381019061009d9190610629565b610407565b6040516100af919061066c565b60405180910390f35b3480156100c3575f80fd5b506100cc61041c565b6040516100d9919061066c565b60405180910390f35b6100ea610116565b005b3480156100f7575f80fd5b50610100610428565b60405161010d9190610694565b60405180910390f35b5f6101203461044c565b9050674563918244f400008110156101795780674563918244f400006040517f22fad4d20000000000000000000000000000000000000000000000000000000081526004016101709291906106ad565b60405180910390fd5b3460015f3373ffffffffffffffffffffffffffffffffffffffff1673ffffffffffffffffffffffffffffffffffffffff1681526020019081526020015f205f8282546101c59190610701565b9250508190555050565b7f000000000000000000000000000000000000000000000000000000000000000073ffffffffffffffffffffffffffffffffffffffff163373ffffffffffffffffffffffffffffffffffffffff161461025f57336040517f245aecd30000000000000000000000000000000000000000000000000000000081526004016102569190610694565b60405180910390fd5b5f5b5f805490508110156102fb575f80828154811061028157610280610734565b5b905f5260205f20015f9054906101000a900473ffffffffffffffffffffffffffffffffffffffff1690505f60015f8373ffffffffffffffffffffffffffffffffffffffff1673ffffffffffffffffffffffffffffffffffffffff1681526020019081526020015f2081905550508080600101915050610261565b505f67ffffffffffffffff81111561031657610315610761565b5b6040519080825280602002602001820160405280156103445781602001602082028036833780820191505090505b505f9080519060200190610359929190610529565b505f3373ffffffffffffffffffffffffffffffffffffffff164760405161037f906107bb565b5f6040518083038185875af1925050503d805f81146103b9576040519150601f19603f3d011682016040523d82523d5f602084013e6103be565b606091505b505090508061040457476040517f51fe4a340000000000000000000000000000000000000000000000000000000081526004016103fb919061066c565b60405180910390fd5b50565b6001602052805f5260405f205f915090505481565b674563918244f4000081565b7f000000000000000000000000000000000000000000000000000000000000000081565b5f80610456610484565b90505f670de0b6b3a7640000848361046e91906107cf565b610478919061083d565b90508092505050919050565b5f8073694aa1769357215de4fac081bf1f309adc32530690505f8173ffffffffffffffffffffffffffffffffffffffff1663feaf968c6040518163ffffffff1660e01b815260040160a060405180830381865afa1580156104e7573d5f803e3d5ffd5b505050506040513d601f19601f8201168201806040525081019061050b9190610909565b5050509150506402540be4008161052291906107cf565b9250505090565b828054828255905f5260205f2090810192821561059f579160200282015b8281111561059e578251825f6101000a81548173ffffffffffffffffffffffffffffffffffffffff021916908373ffffffffffffffffffffffffffffffffffffffff16021790555091602001919060010190610547565b5b5090506105ac91906105b0565b5090565b5b808211156105c7575f815f9055506001016105b1565b5090565b5f80fd5b5f73ffffffffffffffffffffffffffffffffffffffff82169050919050565b5f6105f8826105cf565b9050919050565b610608816105ee565b8114610612575f80fd5b50565b5f81359050610623816105ff565b92915050565b5f6020828403121561063e5761063d6105cb565b5b5f61064b84828501610615565b91505092915050565b5f819050919050565b61066681610654565b82525050565b5f60208201905061067f5f83018461065d565b92915050565b61068e816105ee565b82525050565b5f6020820190506106a75f830184610685565b92915050565b5f6040820190506106c05f83018561065d565b6106cd602083018461065d565b9392505050565b7f4e487b71000000000000000000000000000000000000000000000000000000005f52601160045260245ffd5b5f61070b82610654565b915061071683610654565b925082820190508082111561072e5761072d6106d4565b5b92915050565b7f4e487b71000000000000000000000000000000000000000000000000000000005f52603260045260245ffd5b7f4e487b71000000000000000000000000000000000000000000000000000000005f52604160045260245ffd5b5f81905092915050565b50565b5f6107a65f8361078e565b91506107b182610798565b5f82019050919050565b5f6107c58261079b565b9150819050919050565b5f6107d982610654565b91506107e483610654565b92508282026107f281610654565b91508282048414831517610809576108086106d4565b5b5092915050565b7f4e487b71000000000000000000000000000000000000000000000000000000005f52601260045260245ffd5b5f61084782610654565b915061085283610654565b92508261086257610861610810565b5b828204905092915050565b5f69ffffffffffffffffffff82169050919050565b61088b8161086d565b8114610895575f80fd5b50565b5f815190506108a681610882565b92915050565b5f819050919050565b6108be816108ac565b81146108c8575f80fd5b50565b5f815190506108d9816108b5565b92915050565b6108e881610654565b81146108f2575f80fd5b50565b5f81519050610903816108df565b92915050565b5f805f805f60a08688031215610922576109216105cb565b5b5f61092f88828901610898565b9550506020610940888289016108cb565b9450506040610951888289016108f5565b9350506060610962888289016108f5565b925050608061097388828901610898565b915050929550929590935056fea264697066735822122097a99d1e038c5623f271d2e3a7b7e6d983f0250d5cd7662f15cfc5776718893064736f6c63430008180033",
					"opcodes": "PUSH1 0xA0 PUSH1 0x40 MSTORE CALLVALUE DUP1 ISZERO PUSH2 0xF JUMPI PUSH0 DUP1 REVERT JUMPDEST POP CALLER PUSH20 0xFFFFFFFFFFFFFFFFFFFFFFFFFFFFFFFFFFFFFFFF AND PUSH1 0x80 DUP2 PUSH20 0xFFFFFFFFFFFFFFFFFFFFFFFFFFFFFFFFFFFFFFFF AND DUP2 MSTORE POP POP PUSH1 0x80 MLOAD PUSH2 0x9B6 PUSH2 0x63 PUSH0 CODECOPY PUSH0 DUP2 DUP2 PUSH2 0x1D1 ADD MSTORE PUSH2 0x42A ADD MSTORE PUSH2 0x9B6 PUSH0 RETURN INVALID PUSH1 0x80 PUSH1 0x40 MSTORE PUSH1 0x4 CALLDATASIZE LT PUSH2 0x4D JUMPI PUSH0 CALLDATALOAD PUSH1 0xE0 SHR DUP1 PUSH4 0x3CCFD60B EQ PUSH2 0x66 JUMPI DUP1 PUSH4 0x3E47D6F3 EQ PUSH2 0x7C JUMPI DUP1 PUSH4 0x6B69A592 EQ PUSH2 0xB8 JUMPI DUP1 PUSH4 0xB60D4288 EQ PUSH2 0xE2 JUMPI DUP1 PUSH4 0xDBA6335F EQ PUSH2 0xEC JUMPI PUSH2 0x5C JUMP JUMPDEST CALLDATASIZE PUSH2 0x5C JUMPI PUSH2 0x5A PUSH2 0x116 JUMP JUMPDEST STOP JUMPDEST PUSH2 0x64 PUSH2 0x116 JUMP JUMPDEST STOP JUMPDEST CALLVALUE DUP1 ISZERO PUSH2 0x71 JUMPI PUSH0 DUP1 REVERT JUMPDEST POP PUSH2 0x7A PUSH2 0x1CF JUMP JUMPDEST STOP JUMPDEST CALLVALUE DUP1 ISZERO PUSH2 0x87 JUMPI PUSH0 DUP1 REVERT JUMPDEST POP PUSH2 0xA2 PUSH1 0x4 DUP1 CALLDATASIZE SUB DUP2 ADD SWAP1 PUSH2 0x9D SWAP2 SWAP1 PUSH2 0x629 JUMP JUMPDEST PUSH2 0x407 JUMP JUMPDEST PUSH1 0x40 MLOAD PUSH2 0xAF SWAP2 SWAP1 PUSH2 0x66C JUMP JUMPDEST PUSH1 0x40 MLOAD DUP1 SWAP2 SUB SWAP1 RETURN JUMPDEST CALLVALUE DUP1 ISZERO PUSH2 0xC3 JUMPI PUSH0 DUP1 REVERT JUMPDEST POP PUSH2 0xCC PUSH2 0x41C JUMP JUMPDEST PUSH1 0x40 MLOAD PUSH2 0xD9 SWAP2 SWAP1 PUSH2 0x66C JUMP JUMPDEST PUSH1 0x40 MLOAD DUP1 SWAP2 SUB SWAP1 RETURN JUMPDEST PUSH2 0xEA PUSH2 0x116 JUMP JUMPDEST STOP JUMPDEST CALLVALUE DUP1 ISZERO PUSH2 0xF7 JUMPI PUSH0 DUP1 REVERT JUMPDEST POP PUSH2 0x100 PUSH2 0x428 JUMP JUMPDEST PUSH1 0x40 MLOAD PUSH2 0x10D SWAP2 SWAP1 PUSH2 0x694 JUMP JUMPDEST PUSH1 0x40 MLOAD DUP1 SWAP2 SUB SWAP1 RETURN JUMPDEST PUSH0 PUSH2 0x120 CALLVALUE PUSH2 0x44C JUMP JUMPDEST SWAP1 POP PUSH8 0x4563918244F40000 DUP2 LT ISZERO PUSH2 0x179 JUMPI DUP1 PUSH8 0x4563918244F40000 PUSH1 0x40 MLOAD PUSH32 0x22FAD4D200000000000000000000000000000000000000000000000000000000 DUP2 MSTORE PUSH1 0x4 ADD PUSH2 0x170 SWAP3 SWAP2 SWAP1 PUSH2 0x6AD JUMP JUMPDEST PUSH1 0x40 MLOAD DUP1 SWAP2 SUB SWAP1 REVERT JUMPDEST CALLVALUE PUSH1 0x1 PUSH0 CALLER PUSH20 0xFFFFFFFFFFFFFFFFFFFFFFFFFFFFFFFFFFFFFFFF AND PUSH20 0xFFFFFFFFFFFFFFFFFFFFFFFFFFFFFFFFFFFFFFFF AND DUP2 MSTORE PUSH1 0x20 ADD SWAP1 DUP2 MSTORE PUSH1 0x20 ADD PUSH0 KECCAK256 PUSH0 DUP3 DUP3 SLOAD PUSH2 0x1C5 SWAP2 SWAP1 PUSH2 0x701 JUMP JUMPDEST SWAP3 POP POP DUP2 SWAP1 SSTORE POP POP JUMP JUMPDEST PUSH32 0x0 PUSH20 0xFFFFFFFFFFFFFFFFFFFFFFFFFFFFFFFFFFFFFFFF AND CALLER PUSH20 0xFFFFFFFFFFFFFFFFFFFFFFFFFFFFFFFFFFFFFFFF AND EQ PUSH2 0x25F JUMPI CALLER PUSH1 0x40 MLOAD PUSH32 0x245AECD300000000000000000000000000000000000000000000000000000000 DUP2 MSTORE PUSH1 0x4 ADD PUSH2 0x256 SWAP2 SWAP1 PUSH2 0x694 JUMP JUMPDEST PUSH1 0x40 MLOAD DUP1 SWAP2 SUB SWAP1 REVERT JUMPDEST PUSH0 JUMPDEST PUSH0 DUP1 SLOAD SWAP1 POP DUP2 LT ISZERO PUSH2 0x2FB JUMPI PUSH0 DUP1 DUP3 DUP2 SLOAD DUP2 LT PUSH2 0x281 JUMPI PUSH2 0x280 PUSH2 0x734 JUMP JUMPDEST JUMPDEST SWAP1 PUSH0 MSTORE PUSH1 0x20 PUSH0 KECCAK256 ADD PUSH0 SWAP1 SLOAD SWAP1 PUSH2 0x100 EXP SWAP1 DIV PUSH20 0xFFFFFFFFFFFFFFFFFFFFFFFFFFFFFFFFFFFFFFFF AND SWAP1 POP PUSH0 PUSH1 0x1 PUSH0 DUP4 PUSH20 0xFFFFFFFFFFFFFFFFFFFFFFFFFFFFFFFFFFFFFFFF AND PUSH20 0xFFFFFFFFFFFFFFFFFFFFFFFFFFFFFFFFFFFFFFFF AND DUP2 MSTORE PUSH1 0x20 ADD SWAP1 DUP2 MSTORE PUSH1 0x20 ADD PUSH0 KECCAK256 DUP2 SWAP1 SSTORE POP POP DUP1 DUP1 PUSH1 0x1 ADD SWAP2 POP POP PUSH2 0x261 JUMP JUMPDEST POP PUSH0 PUSH8 0xFFFFFFFFFFFFFFFF DUP2 GT ISZERO PUSH2 0x316 JUMPI PUSH2 0x315 PUSH2 0x761 JUMP JUMPDEST JUMPDEST PUSH1 0x40 MLOAD SWAP1 DUP1 DUP3 MSTORE DUP1 PUSH1 0x20 MUL PUSH1 0x20 ADD DUP3 ADD PUSH1 0x40 MSTORE DUP1 ISZERO PUSH2 0x344 JUMPI DUP2 PUSH1 0x20 ADD PUSH1 0x20 DUP3 MUL DUP1 CALLDATASIZE DUP4 CALLDATACOPY DUP1 DUP3 ADD SWAP2 POP POP SWAP1 POP JUMPDEST POP PUSH0 SWAP1 DUP1 MLOAD SWAP1 PUSH1 0x20 ADD SWAP1 PUSH2 0x359 SWAP3 SWAP2 SWAP1 PUSH2 0x529 JUMP JUMPDEST POP PUSH0 CALLER PUSH20 0xFFFFFFFFFFFFFFFFFFFFFFFFFFFFFFFFFFFFFFFF AND SELFBALANCE PUSH1 0x40 MLOAD PUSH2 0x37F SWAP1 PUSH2 0x7BB JUMP JUMPDEST PUSH0 PUSH1 0x40 MLOAD DUP1 DUP4 SUB DUP2 DUP6 DUP8 GAS CALL SWAP3 POP POP POP RETURNDATASIZE DUP1 PUSH0 DUP2 EQ PUSH2 0x3B9 JUMPI PUSH1 0x40 MLOAD SWAP2 POP PUSH1 0x1F NOT PUSH1 0x3F RETURNDATASIZE ADD AND DUP3 ADD PUSH1 0x40 MSTORE RETURNDATASIZE DUP3 MSTORE RETURNDATASIZE PUSH0 PUSH1 0x20 DUP5 ADD RETURNDATACOPY PUSH2 0x3BE JUMP JUMPDEST PUSH1 0x60 SWAP2 POP JUMPDEST POP POP SWAP1 POP DUP1 PUSH2 0x404 JUMPI SELFBALANCE PUSH1 0x40 MLOAD PUSH32 0x51FE4A3400000000000000000000000000000000000000000000000000000000 DUP2 MSTORE PUSH1 0x4 ADD PUSH2 0x3FB SWAP2 SWAP1 PUSH2 0x66C JUMP JUMPDEST PUSH1 0x40 MLOAD DUP1 SWAP2 SUB SWAP1 REVERT JUMPDEST POP JUMP JUMPDEST PUSH1 0x1 PUSH1 0x20 MSTORE DUP1 PUSH0 MSTORE PUSH1 0x40 PUSH0 KECCAK256 PUSH0 SWAP2 POP SWAP1 POP SLOAD DUP2 JUMP JUMPDEST PUSH8 0x4563918244F40000 DUP2 JUMP JUMPDEST PUSH32 0x0 DUP2 JUMP JUMPDEST PUSH0 DUP1 PUSH2 0x456 PUSH2 0x484 JUMP JUMPDEST SWAP1 POP PUSH0 PUSH8 0xDE0B6B3A7640000 DUP5 DUP4 PUSH2 0x46E SWAP2 SWAP1 PUSH2 0x7CF JUMP JUMPDEST PUSH2 0x478 SWAP2 SWAP1 PUSH2 0x83D JUMP JUMPDEST SWAP1 POP DUP1 SWAP3 POP POP POP SWAP2 SWAP1 POP JUMP JUMPDEST PUSH0 DUP1 PUSH20 0x694AA1769357215DE4FAC081BF1F309ADC325306 SWAP1 POP PUSH0 DUP2 PUSH20 0xFFFFFFFFFFFFFFFFFFFFFFFFFFFFFFFFFFFFFFFF AND PUSH4 0xFEAF968C PUSH1 0x40 MLOAD DUP2 PUSH4 0xFFFFFFFF AND PUSH1 0xE0 SHL DUP2 MSTORE PUSH1 0x4 ADD PUSH1 0xA0 PUSH1 0x40 MLOAD DUP1 DUP4 SUB DUP2 DUP7 GAS STATICCALL ISZERO DUP1 ISZERO PUSH2 0x4E7 JUMPI RETURNDATASIZE PUSH0 DUP1 RETURNDATACOPY RETURNDATASIZE PUSH0 REVERT JUMPDEST POP POP POP POP PUSH1 0x40 MLOAD RETURNDATASIZE PUSH1 0x1F NOT PUSH1 0x1F DUP3 ADD AND DUP3 ADD DUP1 PUSH1 0x40 MSTORE POP DUP2 ADD SWAP1 PUSH2 0x50B SWAP2 SWAP1 PUSH2 0x909 JUMP JUMPDEST POP POP POP SWAP2 POP POP PUSH5 0x2540BE400 DUP2 PUSH2 0x522 SWAP2 SWAP1 PUSH2 0x7CF JUMP JUMPDEST SWAP3 POP POP POP SWAP1 JUMP JUMPDEST DUP3 DUP1 SLOAD DUP3 DUP3 SSTORE SWAP1 PUSH0 MSTORE PUSH1 0x20 PUSH0 KECCAK256 SWAP1 DUP2 ADD SWAP3 DUP3 ISZERO PUSH2 0x59F JUMPI SWAP2 PUSH1 0x20 MUL DUP3 ADD JUMPDEST DUP3 DUP2 GT ISZERO PUSH2 0x59E JUMPI DUP3 MLOAD DUP3 PUSH0 PUSH2 0x100 EXP DUP2 SLOAD DUP2 PUSH20 0xFFFFFFFFFFFFFFFFFFFFFFFFFFFFFFFFFFFFFFFF MUL NOT AND SWAP1 DUP4 PUSH20 0xFFFFFFFFFFFFFFFFFFFFFFFFFFFFFFFFFFFFFFFF AND MUL OR SWAP1 SSTORE POP SWAP2 PUSH1 0x20 ADD SWAP2 SWAP1 PUSH1 0x1 ADD SWAP1 PUSH2 0x547 JUMP JUMPDEST JUMPDEST POP SWAP1 POP PUSH2 0x5AC SWAP2 SWAP1 PUSH2 0x5B0 JUMP JUMPDEST POP SWAP1 JUMP JUMPDEST JUMPDEST DUP1 DUP3 GT ISZERO PUSH2 0x5C7 JUMPI PUSH0 DUP2 PUSH0 SWAP1 SSTORE POP PUSH1 0x1 ADD PUSH2 0x5B1 JUMP JUMPDEST POP SWAP1 JUMP JUMPDEST PUSH0 DUP1 REVERT JUMPDEST PUSH0 PUSH20 0xFFFFFFFFFFFFFFFFFFFFFFFFFFFFFFFFFFFFFFFF DUP3 AND SWAP1 POP SWAP2 SWAP1 POP JUMP JUMPDEST PUSH0 PUSH2 0x5F8 DUP3 PUSH2 0x5CF JUMP JUMPDEST SWAP1 POP SWAP2 SWAP1 POP JUMP JUMPDEST PUSH2 0x608 DUP2 PUSH2 0x5EE JUMP JUMPDEST DUP2 EQ PUSH2 0x612 JUMPI PUSH0 DUP1 REVERT JUMPDEST POP JUMP JUMPDEST PUSH0 DUP2 CALLDATALOAD SWAP1 POP PUSH2 0x623 DUP2 PUSH2 0x5FF JUMP JUMPDEST SWAP3 SWAP2 POP POP JUMP JUMPDEST PUSH0 PUSH1 0x20 DUP3 DUP5 SUB SLT ISZERO PUSH2 0x63E JUMPI PUSH2 0x63D PUSH2 0x5CB JUMP JUMPDEST JUMPDEST PUSH0 PUSH2 0x64B DUP5 DUP3 DUP6 ADD PUSH2 0x615 JUMP JUMPDEST SWAP2 POP POP SWAP3 SWAP2 POP POP JUMP JUMPDEST PUSH0 DUP2 SWAP1 POP SWAP2 SWAP1 POP JUMP JUMPDEST PUSH2 0x666 DUP2 PUSH2 0x654 JUMP JUMPDEST DUP3 MSTORE POP POP JUMP JUMPDEST PUSH0 PUSH1 0x20 DUP3 ADD SWAP1 POP PUSH2 0x67F PUSH0 DUP4 ADD DUP5 PUSH2 0x65D JUMP JUMPDEST SWAP3 SWAP2 POP POP JUMP JUMPDEST PUSH2 0x68E DUP2 PUSH2 0x5EE JUMP JUMPDEST DUP3 MSTORE POP POP JUMP JUMPDEST PUSH0 PUSH1 0x20 DUP3 ADD SWAP1 POP PUSH2 0x6A7 PUSH0 DUP4 ADD DUP5 PUSH2 0x685 JUMP JUMPDEST SWAP3 SWAP2 POP POP JUMP JUMPDEST PUSH0 PUSH1 0x40 DUP3 ADD SWAP1 POP PUSH2 0x6C0 PUSH0 DUP4 ADD DUP6 PUSH2 0x65D JUMP JUMPDEST PUSH2 0x6CD PUSH1 0x20 DUP4 ADD DUP5 PUSH2 0x65D JUMP JUMPDEST SWAP4 SWAP3 POP POP POP JUMP JUMPDEST PUSH32 0x4E487B7100000000000000000000000000000000000000000000000000000000 PUSH0 MSTORE PUSH1 0x11 PUSH1 0x4 MSTORE PUSH1 0x24 PUSH0 REVERT JUMPDEST PUSH0 PUSH2 0x70B DUP3 PUSH2 0x654 JUMP JUMPDEST SWAP2 POP PUSH2 0x716 DUP4 PUSH2 0x654 JUMP JUMPDEST SWAP3 POP DUP3 DUP3 ADD SWAP1 POP DUP1 DUP3 GT ISZERO PUSH2 0x72E JUMPI PUSH2 0x72D PUSH2 0x6D4 JUMP JUMPDEST JUMPDEST SWAP3 SWAP2 POP POP JUMP JUMPDEST PUSH32 0x4E487B7100000000000000000000000000000000000000000000000000000000 PUSH0 MSTORE PUSH1 0x32 PUSH1 0x4 MSTORE PUSH1 0x24 PUSH0 REVERT JUMPDEST PUSH32 0x4E487B7100000000000000000000000000000000000000000000000000000000 PUSH0 MSTORE PUSH1 0x41 PUSH1 0x4 MSTORE PUSH1 0x24 PUSH0 REVERT JUMPDEST PUSH0 DUP2 SWAP1 POP SWAP3 SWAP2 POP POP JUMP JUMPDEST POP JUMP JUMPDEST PUSH0 PUSH2 0x7A6 PUSH0 DUP4 PUSH2 0x78E JUMP JUMPDEST SWAP2 POP PUSH2 0x7B1 DUP3 PUSH2 0x798 JUMP JUMPDEST PUSH0 DUP3 ADD SWAP1 POP SWAP2 SWAP1 POP JUMP JUMPDEST PUSH0 PUSH2 0x7C5 DUP3 PUSH2 0x79B JUMP JUMPDEST SWAP2 POP DUP2 SWAP1 POP SWAP2 SWAP1 POP JUMP JUMPDEST PUSH0 PUSH2 0x7D9 DUP3 PUSH2 0x654 JUMP JUMPDEST SWAP2 POP PUSH2 0x7E4 DUP4 PUSH2 0x654 JUMP JUMPDEST SWAP3 POP DUP3 DUP3 MUL PUSH2 0x7F2 DUP2 PUSH2 0x654 JUMP JUMPDEST SWAP2 POP DUP3 DUP3 DIV DUP5 EQ DUP4 ISZERO OR PUSH2 0x809 JUMPI PUSH2 0x808 PUSH2 0x6D4 JUMP JUMPDEST JUMPDEST POP SWAP3 SWAP2 POP POP JUMP JUMPDEST PUSH32 0x4E487B7100000000000000000000000000000000000000000000000000000000 PUSH0 MSTORE PUSH1 0x12 PUSH1 0x4 MSTORE PUSH1 0x24 PUSH0 REVERT JUMPDEST PUSH0 PUSH2 0x847 DUP3 PUSH2 0x654 JUMP JUMPDEST SWAP2 POP PUSH2 0x852 DUP4 PUSH2 0x654 JUMP JUMPDEST SWAP3 POP DUP3 PUSH2 0x862 JUMPI PUSH2 0x861 PUSH2 0x810 JUMP JUMPDEST JUMPDEST DUP3 DUP3 DIV SWAP1 POP SWAP3 SWAP2 POP POP JUMP JUMPDEST PUSH0 PUSH10 0xFFFFFFFFFFFFFFFFFFFF DUP3 AND SWAP1 POP SWAP2 SWAP1 POP JUMP JUMPDEST PUSH2 0x88B DUP2 PUSH2 0x86D JUMP JUMPDEST DUP2 EQ PUSH2 0x895 JUMPI PUSH0 DUP1 REVERT JUMPDEST POP JUMP JUMPDEST PUSH0 DUP2 MLOAD SWAP1 POP PUSH2 0x8A6 DUP2 PUSH2 0x882 JUMP JUMPDEST SWAP3 SWAP2 POP POP JUMP JUMPDEST PUSH0 DUP2 SWAP1 POP SWAP2 SWAP1 POP JUMP JUMPDEST PUSH2 0x8BE DUP2 PUSH2 0x8AC JUMP JUMPDEST DUP2 EQ PUSH2 0x8C8 JUMPI PUSH0 DUP1 REVERT JUMPDEST POP JUMP JUMPDEST PUSH0 DUP2 MLOAD SWAP1 POP PUSH2 0x8D9 DUP2 PUSH2 0x8B5 JUMP JUMPDEST SWAP3 SWAP2 POP POP JUMP JUMPDEST PUSH2 0x8E8 DUP2 PUSH2 0x654 JUMP JUMPDEST DUP2 EQ PUSH2 0x8F2 JUMPI PUSH0 DUP1 REVERT JUMPDEST POP JUMP JUMPDEST PUSH0 DUP2 MLOAD SWAP1 POP PUSH2 0x903 DUP2 PUSH2 0x8DF JUMP JUMPDEST SWAP3 SWAP2 POP POP JUMP JUMPDEST PUSH0 DUP1 PUSH0 DUP1 PUSH0 PUSH1 0xA0 DUP7 DUP9 SUB SLT ISZERO PUSH2 0x922 JUMPI PUSH2 0x921 PUSH2 0x5CB JUMP JUMPDEST JUMPDEST PUSH0 PUSH2 0x92F DUP9 DUP3 DUP10 ADD PUSH2 0x898 JUMP JUMPDEST SWAP6 POP POP PUSH1 0x20 PUSH2 0x940 DUP9 DUP3 DUP10 ADD PUSH2 0x8CB JUMP JUMPDEST SWAP5 POP POP PUSH1 0x40 PUSH2 0x951 DUP9 DUP3 DUP10 ADD PUSH2 0x8F5 JUMP JUMPDEST SWAP4 POP POP PUSH1 0x60 PUSH2 0x962 DUP9 DUP3 DUP10 ADD PUSH2 0x8F5 JUMP JUMPDEST SWAP3 POP POP PUSH1 0x80 PUSH2 0x973 DUP9 DUP3 DUP10 ADD PUSH2 0x898 JUMP JUMPDEST SWAP2 POP POP SWAP3 SWAP6 POP SWAP3 SWAP6 SWAP1 SWAP4 POP JUMP INVALID LOG2 PUSH5 0x6970667358 0x22 SLT KECCAK256 SWAP8 0xA9 SWAP14 0x1E SUB DUP13 JUMP 0x23 CALLCODE PUSH18 0xD2E3A7B7E6D983F0250D5CD7662F15CFC577 PUSH8 0x18893064736F6C63 NUMBER STOP ADDMOD XOR STOP CALLER "
				},
				"gasEstimates": {
					"creation": {
						"codeDepositCost": "497200",
						"executionCost": "infinite",
						"totalCost": "infinite"
					},
					"external": {
						"": "infinite",
						"MINIMUM_USD()": "347",
						"addressToAmountFunded(address)": "2802",
						"fund()": "infinite",
						"i_owner()": "infinite",
						"withdraw()": "infinite"
					}
				},
				"methodIdentifiers": {
					"MINIMUM_USD()": "6b69a592",
					"addressToAmountFunded(address)": "3e47d6f3",
					"fund()": "b60d4288",
					"i_owner()": "dba6335f",
					"withdraw()": "3ccfd60b"
				}
			},
			"storageLayout": {
				"storage": [
					{
						"astId": 72,
						"contract": "contracts/FundMe.sol:FundMe",
						"label": "funders",
						"offset": 0,
						"slot": "0",
						"type": "t_array(t_address)dyn_storage"
					},
					{
						"astId": 76,
						"contract": "contracts/FundMe.sol:FundMe",
						"label": "addressToAmountFunded",
						"offset": 0,
						"slot": "1",
						"type": "t_mapping(t_address,t_uint256)"
					}
				],
				"types": {
					"t_address": {
						"encoding": "inplace",
						"label": "address",
						"numberOfBytes": "20"
					},
					"t_array(t_address)dyn_storage": {
						"base": "t_address",
						"encoding": "dynamic_array",
						"label": "address[]",
						"numberOfBytes": "32"
					},
					"t_mapping(t_address,t_uint256)": {
						"encoding": "mapping",
						"key": "t_address",
						"label": "mapping(address => uint256)",
						"numberOfBytes": "32",
						"value": "t_uint256"
					},
					"t_uint256": {
						"encoding": "inplace",
						"label": "uint256",
						"numberOfBytes": "32"
					}
				}
			},
			"userdoc": {
				"kind": "user",
				"methods": {},
				"version": 1
			}
		}
	}
}