{
	"contracts/FundMe.sol": {
		"FundMe": {
			"abi": [
				{
					"inputs": [],
					"stateMutability": "nonpayable",
					"type": "constructor"
				},
				{
					"inputs": [
						{
							"internalType": "address",
							"name": "funder",
							"type": "address"
						}
					],
					"name": "addressToAmountFunded",
					"outputs": [
						{
							"internalType": "uint256",
							"name": "amountFunded",
							"type": "uint256"
						}
					],
					"stateMutability": "view",
					"type": "function"
				},
				{
					"inputs": [],
					"name": "fund",
					"outputs": [],
					"stateMutability": "payable",
					"type": "function"
				},
				{
					"inputs": [],
					"name": "minUSD",
					"outputs": [
						{
							"internalType": "uint256",
							"name": "",
							"type": "uint256"
						}
					],
					"stateMutability": "view",
					"type": "function"
				},
				{
					"inputs": [],
					"name": "owner",
					"outputs": [
						{
							"internalType": "address",
							"name": "",
							"type": "address"
						}
					],
					"stateMutability": "view",
					"type": "function"
				},
				{
					"inputs": [],
					"name": "withdraw",
					"outputs": [],
					"stateMutability": "nonpayable",
					"type": "function"
				}
			],
			"devdoc": {
				"kind": "dev",
				"methods": {},
				"version": 1
			},
			"evm": {
				"assembly": "    /* \"contracts/FundMe.sol\":118:1173  contract FundMe {... */\n  mstore(0x40, 0x80)\n    /* \"contracts/FundMe.sol\":206:210  5e18 */\n  0x4563918244f40000\n    /* \"contracts/FundMe.sol\":182:210  uint256 public minUSD = 5e18 */\n  0x00\n  sstore\n    /* \"contracts/FundMe.sol\":399:449  constructor(){... */\n  callvalue\n  dup1\n  iszero\n  tag_1\n  jumpi\n  0x00\n  dup1\n  revert\ntag_1:\n  pop\n    /* \"contracts/FundMe.sol\":431:441  msg.sender */\n  caller\n    /* \"contracts/FundMe.sol\":423:428  owner */\n  0x03\n  0x00\n    /* \"contracts/FundMe.sol\":423:441  owner = msg.sender */\n  0x0100\n  exp\n  dup2\n  sload\n  dup2\n  0xffffffffffffffffffffffffffffffffffffffff\n  mul\n  not\n  and\n  swap1\n  dup4\n  0xffffffffffffffffffffffffffffffffffffffff\n  and\n  mul\n  or\n  swap1\n  sstore\n  pop\n    /* \"contracts/FundMe.sol\":118:1173  contract FundMe {... */\n  dataSize(sub_0)\n  dup1\n  dataOffset(sub_0)\n  0x00\n  codecopy\n  0x00\n  return\nstop\n\nsub_0: assembly {\n        /* \"contracts/FundMe.sol\":118:1173  contract FundMe {... */\n      mstore(0x40, 0x80)\n      jumpi(tag_1, lt(calldatasize, 0x04))\n      shr(0xe0, calldataload(0x00))\n      dup1\n      0x3ccfd60b\n      eq\n      tag_2\n      jumpi\n      dup1\n      0x3e47d6f3\n      eq\n      tag_3\n      jumpi\n      dup1\n      0x8da5cb5b\n      eq\n      tag_4\n      jumpi\n      dup1\n      0xb60d4288\n      eq\n      tag_5\n      jumpi\n      dup1\n      0xdc992aa0\n      eq\n      tag_6\n      jumpi\n    tag_1:\n      0x00\n      dup1\n      revert\n        /* \"contracts/FundMe.sol\":654:1053  function withdraw() public onlyOwner {... */\n    tag_2:\n      callvalue\n      dup1\n      iszero\n      tag_7\n      jumpi\n      0x00\n      dup1\n      revert\n    tag_7:\n      pop\n      tag_8\n      tag_9\n      jump\t// in\n    tag_8:\n      stop\n        /* \"contracts/FundMe.sol\":243:320  mapping (address funder => uint256 amountFunded) public addressToAmountFunded */\n    tag_3:\n      callvalue\n      dup1\n      iszero\n      tag_10\n      jumpi\n      0x00\n      dup1\n      revert\n    tag_10:\n      pop\n      tag_11\n      0x04\n      dup1\n      calldatasize\n      sub\n      dup2\n      add\n      swap1\n      tag_12\n      swap2\n      swap1\n      tag_13\n      jump\t// in\n    tag_12:\n      tag_14\n      jump\t// in\n    tag_11:\n      mload(0x40)\n      tag_15\n      swap2\n      swap1\n      tag_16\n      jump\t// in\n    tag_15:\n      mload(0x40)\n      dup1\n      swap2\n      sub\n      swap1\n      return\n        /* \"contracts/FundMe.sol\":329:349  address public owner */\n    tag_4:\n      callvalue\n      dup1\n      iszero\n      tag_17\n      jumpi\n      0x00\n      dup1\n      revert\n    tag_17:\n      pop\n      tag_18\n      tag_19\n      jump\t// in\n    tag_18:\n      mload(0x40)\n      tag_20\n      swap2\n      swap1\n      tag_21\n      jump\t// in\n    tag_20:\n      mload(0x40)\n      dup1\n      swap2\n      sub\n      swap1\n      return\n        /* \"contracts/FundMe.sol\":457:646  function fund() public payable {... */\n    tag_5:\n      tag_22\n      tag_23\n      jump\t// in\n    tag_22:\n      stop\n        /* \"contracts/FundMe.sol\":182:210  uint256 public minUSD = 5e18 */\n    tag_6:\n      callvalue\n      dup1\n      iszero\n      tag_24\n      jumpi\n      0x00\n      dup1\n      revert\n    tag_24:\n      pop\n      tag_25\n      tag_26\n      jump\t// in\n    tag_25:\n      mload(0x40)\n      tag_27\n      swap2\n      swap1\n      tag_16\n      jump\t// in\n    tag_27:\n      mload(0x40)\n      dup1\n      swap2\n      sub\n      swap1\n      return\n        /* \"contracts/FundMe.sol\":654:1053  function withdraw() public onlyOwner {... */\n    tag_9:\n        /* \"contracts/FundMe.sol\":1115:1120  owner */\n      0x03\n      0x00\n      swap1\n      sload\n      swap1\n      0x0100\n      exp\n      swap1\n      div\n      0xffffffffffffffffffffffffffffffffffffffff\n      and\n        /* \"contracts/FundMe.sol\":1101:1120  msg.sender == owner */\n      0xffffffffffffffffffffffffffffffffffffffff\n      and\n        /* \"contracts/FundMe.sol\":1101:1111  msg.sender */\n      caller\n        /* \"contracts/FundMe.sol\":1101:1120  msg.sender == owner */\n      0xffffffffffffffffffffffffffffffffffffffff\n      and\n      eq\n        /* \"contracts/FundMe.sol\":1093:1148  require(msg.sender == owner, \"Only owner can withdraw\") */\n      tag_29\n      jumpi\n      mload(0x40)\n      0x08c379a000000000000000000000000000000000000000000000000000000000\n      dup2\n      mstore\n      0x04\n      add\n      tag_30\n      swap1\n      tag_31\n      jump\t// in\n    tag_30:\n      mload(0x40)\n      dup1\n      swap2\n      sub\n      swap1\n      revert\n    tag_29:\n        /* \"contracts/FundMe.sol\":707:720  uint256 index */\n      0x00\n        /* \"contracts/FundMe.sol\":702:864  for (uint256 index = 0; index < funders.length; index++){... */\n    tag_33:\n        /* \"contracts/FundMe.sol\":734:741  funders */\n      0x01\n        /* \"contracts/FundMe.sol\":734:748  funders.length */\n      dup1\n      sload\n      swap1\n      pop\n        /* \"contracts/FundMe.sol\":726:731  index */\n      dup2\n        /* \"contracts/FundMe.sol\":726:748  index < funders.length */\n      lt\n        /* \"contracts/FundMe.sol\":702:864  for (uint256 index = 0; index < funders.length; index++){... */\n      iszero\n      tag_34\n      jumpi\n        /* \"contracts/FundMe.sol\":773:787  address funder */\n      0x00\n        /* \"contracts/FundMe.sol\":790:797  funders */\n      0x01\n        /* \"contracts/FundMe.sol\":798:803  index */\n      dup3\n        /* \"contracts/FundMe.sol\":790:804  funders[index] */\n      dup2\n      sload\n      dup2\n      lt\n      tag_36\n      jumpi\n      tag_37\n      tag_38\n      jump\t// in\n    tag_37:\n    tag_36:\n      swap1\n      0x00\n      mstore\n      keccak256(0x00, 0x20)\n      add\n      0x00\n      swap1\n      sload\n      swap1\n      0x0100\n      exp\n      swap1\n      div\n      0xffffffffffffffffffffffffffffffffffffffff\n      and\n        /* \"contracts/FundMe.sol\":773:804  address funder = funders[index] */\n      swap1\n      pop\n        /* \"contracts/FundMe.sol\":851:852  0 */\n      0x00\n        /* \"contracts/FundMe.sol\":819:840  addressToAmountFunded */\n      0x02\n        /* \"contracts/FundMe.sol\":819:848  addressToAmountFunded[funder] */\n      0x00\n        /* \"contracts/FundMe.sol\":841:847  funder */\n      dup4\n        /* \"contracts/FundMe.sol\":819:848  addressToAmountFunded[funder] */\n      0xffffffffffffffffffffffffffffffffffffffff\n      and\n      0xffffffffffffffffffffffffffffffffffffffff\n      and\n      dup2\n      mstore\n      0x20\n      add\n      swap1\n      dup2\n      mstore\n      0x20\n      add\n      0x00\n      keccak256\n        /* \"contracts/FundMe.sol\":819:852  addressToAmountFunded[funder] = 0 */\n      dup2\n      swap1\n      sstore\n      pop\n        /* \"contracts/FundMe.sol\":758:864  {... */\n      pop\n        /* \"contracts/FundMe.sol\":750:757  index++ */\n      dup1\n      dup1\n      0x01\n      add\n      swap2\n      pop\n      pop\n        /* \"contracts/FundMe.sol\":702:864  for (uint256 index = 0; index < funders.length; index++){... */\n      jump(tag_33)\n    tag_34:\n      pop\n        /* \"contracts/FundMe.sol\":898:899  0 */\n      0x00\n        /* \"contracts/FundMe.sol\":884:900  new address[](0) */\n      0xffffffffffffffff\n      dup2\n      gt\n      iszero\n      tag_40\n      jumpi\n      tag_41\n      tag_42\n      jump\t// in\n    tag_41:\n    tag_40:\n      mload(0x40)\n      swap1\n      dup1\n      dup3\n      mstore\n      dup1\n      0x20\n      mul\n      0x20\n      add\n      dup3\n      add\n      0x40\n      mstore\n      dup1\n      iszero\n      tag_43\n      jumpi\n      dup2\n      0x20\n      add\n      0x20\n      dup3\n      mul\n      dup1\n      calldatasize\n      dup4\n      calldatacopy\n      dup1\n      dup3\n      add\n      swap2\n      pop\n      pop\n      swap1\n      pop\n    tag_43:\n      pop\n        /* \"contracts/FundMe.sol\":874:881  funders */\n      0x01\n        /* \"contracts/FundMe.sol\":874:900  funders = new address[](0) */\n      swap1\n      dup1\n      mload\n      swap1\n      0x20\n      add\n      swap1\n      tag_44\n      swap3\n      swap2\n      swap1\n      tag_45\n      jump\t// in\n    tag_44:\n      pop\n        /* \"contracts/FundMe.sol\":912:928  bool callSuccess */\n      0x00\n        /* \"contracts/FundMe.sol\":942:952  msg.sender */\n      caller\n        /* \"contracts/FundMe.sol\":934:958  payable(msg.sender).call */\n      0xffffffffffffffffffffffffffffffffffffffff\n      and\n        /* \"contracts/FundMe.sol\":966:987  address(this).balance */\n      selfbalance\n        /* \"contracts/FundMe.sol\":934:992  payable(msg.sender).call{value: address(this).balance}(\"\") */\n      mload(0x40)\n      tag_46\n      swap1\n      tag_47\n      jump\t// in\n    tag_46:\n      0x00\n      mload(0x40)\n      dup1\n      dup4\n      sub\n      dup2\n      dup6\n      dup8\n      gas\n      call\n      swap3\n      pop\n      pop\n      pop\n      returndatasize\n      dup1\n      0x00\n      dup2\n      eq\n      tag_50\n      jumpi\n      mload(0x40)\n      swap2\n      pop\n      and(add(returndatasize, 0x3f), not(0x1f))\n      dup3\n      add\n      0x40\n      mstore\n      returndatasize\n      dup3\n      mstore\n      returndatasize\n      0x00\n      0x20\n      dup5\n      add\n      returndatacopy\n      jump(tag_49)\n    tag_50:\n      0x60\n      swap2\n      pop\n    tag_49:\n      pop\n        /* \"contracts/FundMe.sol\":911:992  (bool callSuccess, ) = payable(msg.sender).call{value: address(this).balance}(\"\") */\n      pop\n      swap1\n      pop\n        /* \"contracts/FundMe.sol\":1011:1022  callSuccess */\n      dup1\n        /* \"contracts/FundMe.sol\":1003:1045  require(callSuccess, \"Transaction failed\") */\n      tag_51\n      jumpi\n      mload(0x40)\n      0x08c379a000000000000000000000000000000000000000000000000000000000\n      dup2\n      mstore\n      0x04\n      add\n      tag_52\n      swap1\n      tag_53\n      jump\t// in\n    tag_52:\n      mload(0x40)\n      dup1\n      swap2\n      sub\n      swap1\n      revert\n    tag_51:\n        /* \"contracts/FundMe.sol\":691:1053  {... */\n      pop\n        /* \"contracts/FundMe.sol\":654:1053  function withdraw() public onlyOwner {... */\n      jump\t// out\n        /* \"contracts/FundMe.sol\":243:320  mapping (address funder => uint256 amountFunded) public addressToAmountFunded */\n    tag_14:\n      mstore(0x20, 0x02)\n      dup1\n      0x00\n      mstore\n      keccak256(0x00, 0x40)\n      0x00\n      swap2\n      pop\n      swap1\n      pop\n      sload\n      dup2\n      jump\t// out\n        /* \"contracts/FundMe.sol\":329:349  address public owner */\n    tag_19:\n      0x03\n      0x00\n      swap1\n      sload\n      swap1\n      0x0100\n      exp\n      swap1\n      div\n      0xffffffffffffffffffffffffffffffffffffffff\n      and\n      dup2\n      jump\t// out\n        /* \"contracts/FundMe.sol\":457:646  function fund() public payable {... */\n    tag_23:\n        /* \"contracts/FundMe.sol\":540:546  minUSD */\n      sload(0x00)\n        /* \"contracts/FundMe.sol\":507:536  msg.value.getConvertionRate() */\n      tag_55\n        /* \"contracts/FundMe.sol\":507:516  msg.value */\n      callvalue\n        /* \"contracts/FundMe.sol\":507:534  msg.value.getConvertionRate */\n      tag_56\n        /* \"contracts/FundMe.sol\":507:536  msg.value.getConvertionRate() */\n      jump\t// in\n    tag_55:\n        /* \"contracts/FundMe.sol\":507:546  msg.value.getConvertionRate() >= minUSD */\n      lt\n      iszero\n        /* \"contracts/FundMe.sol\":499:581  require(msg.value.getConvertionRate() >= minUSD, \"Minimum funding amount not met\") */\n      tag_57\n      jumpi\n      mload(0x40)\n      0x08c379a000000000000000000000000000000000000000000000000000000000\n      dup2\n      mstore\n      0x04\n      add\n      tag_58\n      swap1\n      tag_59\n      jump\t// in\n    tag_58:\n      mload(0x40)\n      dup1\n      swap2\n      sub\n      swap1\n      revert\n    tag_57:\n        /* \"contracts/FundMe.sol\":629:638  msg.value */\n      callvalue\n        /* \"contracts/FundMe.sol\":592:613  addressToAmountFunded */\n      0x02\n        /* \"contracts/FundMe.sol\":592:625  addressToAmountFunded[msg.sender] */\n      0x00\n        /* \"contracts/FundMe.sol\":614:624  msg.sender */\n      caller\n        /* \"contracts/FundMe.sol\":592:625  addressToAmountFunded[msg.sender] */\n      0xffffffffffffffffffffffffffffffffffffffff\n      and\n      0xffffffffffffffffffffffffffffffffffffffff\n      and\n      dup2\n      mstore\n      0x20\n      add\n      swap1\n      dup2\n      mstore\n      0x20\n      add\n      0x00\n      keccak256\n      0x00\n        /* \"contracts/FundMe.sol\":592:638  addressToAmountFunded[msg.sender] += msg.value */\n      dup3\n      dup3\n      sload\n      tag_60\n      swap2\n      swap1\n      tag_61\n      jump\t// in\n    tag_60:\n      swap3\n      pop\n      pop\n      dup2\n      swap1\n      sstore\n      pop\n        /* \"contracts/FundMe.sol\":457:646  function fund() public payable {... */\n      jump\t// out\n        /* \"contracts/FundMe.sol\":182:210  uint256 public minUSD = 5e18 */\n    tag_26:\n      sload(0x00)\n      dup2\n      jump\t// out\n        /* \"contracts/PriceConverter.sol\":543:765  function getConvertionRate(uint256 ethAmount) internal view returns (uint256){... */\n    tag_56:\n        /* \"contracts/PriceConverter.sol\":612:619  uint256 */\n      0x00\n        /* \"contracts/PriceConverter.sol\":631:647  uint256 ethPrice */\n      dup1\n        /* \"contracts/PriceConverter.sol\":650:660  getPrice() */\n      tag_63\n        /* \"contracts/PriceConverter.sol\":650:658  getPrice */\n      tag_64\n        /* \"contracts/PriceConverter.sol\":650:660  getPrice() */\n      jump\t// in\n    tag_63:\n        /* \"contracts/PriceConverter.sol\":631:660  uint256 ethPrice = getPrice() */\n      swap1\n      pop\n        /* \"contracts/PriceConverter.sol\":671:693  uint256 ethAmountInUSD */\n      0x00\n        /* \"contracts/PriceConverter.sol\":721:725  1e18 */\n      0x0de0b6b3a7640000\n        /* \"contracts/PriceConverter.sol\":708:717  ethAmount */\n      dup5\n        /* \"contracts/PriceConverter.sol\":697:705  ethPrice */\n      dup4\n        /* \"contracts/PriceConverter.sol\":697:717  ethPrice * ethAmount */\n      tag_65\n      swap2\n      swap1\n      tag_66\n      jump\t// in\n    tag_65:\n        /* \"contracts/PriceConverter.sol\":696:725  (ethPrice * ethAmount) / 1e18 */\n      tag_67\n      swap2\n      swap1\n      tag_68\n      jump\t// in\n    tag_67:\n        /* \"contracts/PriceConverter.sol\":671:725  uint256 ethAmountInUSD = (ethPrice * ethAmount) / 1e18 */\n      swap1\n      pop\n        /* \"contracts/PriceConverter.sol\":743:757  ethAmountInUSD */\n      dup1\n        /* \"contracts/PriceConverter.sol\":736:757  return ethAmountInUSD */\n      swap3\n      pop\n      pop\n      pop\n        /* \"contracts/PriceConverter.sol\":543:765  function getConvertionRate(uint256 ethAmount) internal view returns (uint256){... */\n      swap2\n      swap1\n      pop\n      jump\t// out\n        /* \"contracts/PriceConverter.sol\":214:535  function getPrice() internal view returns (uint256){... */\n    tag_64:\n        /* \"contracts/PriceConverter.sol\":257:264  uint256 */\n      0x00\n        /* \"contracts/PriceConverter.sol\":276:307  AggregatorV3Interface priceFeed */\n      dup1\n        /* \"contracts/PriceConverter.sol\":332:374  0x694AA1769357215DE4FAC081bf1f309aDC325306 */\n      0x694aa1769357215de4fac081bf1f309adc325306\n        /* \"contracts/PriceConverter.sol\":276:375  AggregatorV3Interface priceFeed = AggregatorV3Interface(0x694AA1769357215DE4FAC081bf1f309aDC325306) */\n      swap1\n      pop\n        /* \"contracts/PriceConverter.sol\":388:400  int256 price */\n      0x00\n        /* \"contracts/PriceConverter.sol\":407:416  priceFeed */\n      dup2\n        /* \"contracts/PriceConverter.sol\":407:432  priceFeed.latestRoundData */\n      0xffffffffffffffffffffffffffffffffffffffff\n      and\n      0xfeaf968c\n        /* \"contracts/PriceConverter.sol\":407:434  priceFeed.latestRoundData() */\n      mload(0x40)\n      dup2\n      0xffffffff\n      and\n      0xe0\n      shl\n      dup2\n      mstore\n      0x04\n      add\n      0xa0\n      mload(0x40)\n      dup1\n      dup4\n      sub\n      dup2\n      dup7\n      gas\n      staticcall\n      iszero\n      dup1\n      iszero\n      tag_71\n      jumpi\n      returndatasize\n      0x00\n      dup1\n      returndatacopy\n      revert(0x00, returndatasize)\n    tag_71:\n      pop\n      pop\n      pop\n      pop\n      mload(0x40)\n      returndatasize\n      not(0x1f)\n      0x1f\n      dup3\n      add\n      and\n      dup3\n      add\n      dup1\n      0x40\n      mstore\n      pop\n      dup2\n      add\n      swap1\n      tag_72\n      swap2\n      swap1\n      tag_73\n      jump\t// in\n    tag_72:\n        /* \"contracts/PriceConverter.sol\":386:434  (,int256 price,,,) = priceFeed.latestRoundData() */\n      pop\n      pop\n      pop\n      swap2\n      pop\n      pop\n        /* \"contracts/PriceConverter.sol\":522:526  1e10 */\n      0x02540be400\n        /* \"contracts/PriceConverter.sol\":513:518  price */\n      dup2\n        /* \"contracts/PriceConverter.sol\":505:526  uint256(price) * 1e10 */\n      tag_74\n      swap2\n      swap1\n      tag_66\n      jump\t// in\n    tag_74:\n        /* \"contracts/PriceConverter.sol\":498:526  return uint256(price) * 1e10 */\n      swap3\n      pop\n      pop\n      pop\n        /* \"contracts/PriceConverter.sol\":214:535  function getPrice() internal view returns (uint256){... */\n      swap1\n      jump\t// out\n    tag_45:\n      dup3\n      dup1\n      sload\n      dup3\n      dup3\n      sstore\n      swap1\n      0x00\n      mstore\n      keccak256(0x00, 0x20)\n      swap1\n      dup2\n      add\n      swap3\n      dup3\n      iszero\n      tag_75\n      jumpi\n      swap2\n      0x20\n      mul\n      dup3\n      add\n    tag_76:\n      dup3\n      dup2\n      gt\n      iszero\n      tag_77\n      jumpi\n      dup3\n      mload\n      dup3\n      exp(0x0100, 0x00)\n      dup2\n      sload\n      dup2\n      0xffffffffffffffffffffffffffffffffffffffff\n      mul\n      not\n      and\n      swap1\n      dup4\n      0xffffffffffffffffffffffffffffffffffffffff\n      and\n      mul\n      or\n      swap1\n      sstore\n      pop\n      swap2\n      0x20\n      add\n      swap2\n      swap1\n      0x01\n      add\n      swap1\n      jump(tag_76)\n    tag_77:\n    tag_75:\n      pop\n      swap1\n      pop\n      tag_78\n      swap2\n      swap1\n      tag_79\n      jump\t// in\n    tag_78:\n      pop\n      swap1\n      jump\t// out\n    tag_79:\n    tag_80:\n      dup1\n      dup3\n      gt\n      iszero\n      tag_81\n      jumpi\n      0x00\n      dup2\n      0x00\n      swap1\n      sstore\n      pop\n      0x01\n      add\n      jump(tag_80)\n    tag_81:\n      pop\n      swap1\n      jump\t// out\n        /* \"#utility.yul\":88:205   */\n    tag_83:\n        /* \"#utility.yul\":197:198   */\n      0x00\n        /* \"#utility.yul\":194:195   */\n      dup1\n        /* \"#utility.yul\":187:199   */\n      revert\n        /* \"#utility.yul\":334:460   */\n    tag_85:\n        /* \"#utility.yul\":371:378   */\n      0x00\n        /* \"#utility.yul\":411:453   */\n      0xffffffffffffffffffffffffffffffffffffffff\n        /* \"#utility.yul\":404:409   */\n      dup3\n        /* \"#utility.yul\":400:454   */\n      and\n        /* \"#utility.yul\":389:454   */\n      swap1\n      pop\n        /* \"#utility.yul\":334:460   */\n      swap2\n      swap1\n      pop\n      jump\t// out\n        /* \"#utility.yul\":466:562   */\n    tag_86:\n        /* \"#utility.yul\":503:510   */\n      0x00\n        /* \"#utility.yul\":532:556   */\n      tag_118\n        /* \"#utility.yul\":550:555   */\n      dup3\n        /* \"#utility.yul\":532:556   */\n      tag_85\n      jump\t// in\n    tag_118:\n        /* \"#utility.yul\":521:556   */\n      swap1\n      pop\n        /* \"#utility.yul\":466:562   */\n      swap2\n      swap1\n      pop\n      jump\t// out\n        /* \"#utility.yul\":568:690   */\n    tag_87:\n        /* \"#utility.yul\":641:665   */\n      tag_120\n        /* \"#utility.yul\":659:664   */\n      dup2\n        /* \"#utility.yul\":641:665   */\n      tag_86\n      jump\t// in\n    tag_120:\n        /* \"#utility.yul\":634:639   */\n      dup2\n        /* \"#utility.yul\":631:666   */\n      eq\n        /* \"#utility.yul\":621:684   */\n      tag_121\n      jumpi\n        /* \"#utility.yul\":680:681   */\n      0x00\n        /* \"#utility.yul\":677:678   */\n      dup1\n        /* \"#utility.yul\":670:682   */\n      revert\n        /* \"#utility.yul\":621:684   */\n    tag_121:\n        /* \"#utility.yul\":568:690   */\n      pop\n      jump\t// out\n        /* \"#utility.yul\":696:835   */\n    tag_88:\n        /* \"#utility.yul\":742:747   */\n      0x00\n        /* \"#utility.yul\":780:786   */\n      dup2\n        /* \"#utility.yul\":767:787   */\n      calldataload\n        /* \"#utility.yul\":758:787   */\n      swap1\n      pop\n        /* \"#utility.yul\":796:829   */\n      tag_123\n        /* \"#utility.yul\":823:828   */\n      dup2\n        /* \"#utility.yul\":796:829   */\n      tag_87\n      jump\t// in\n    tag_123:\n        /* \"#utility.yul\":696:835   */\n      swap3\n      swap2\n      pop\n      pop\n      jump\t// out\n        /* \"#utility.yul\":841:1170   */\n    tag_13:\n        /* \"#utility.yul\":900:906   */\n      0x00\n        /* \"#utility.yul\":949:951   */\n      0x20\n        /* \"#utility.yul\":937:946   */\n      dup3\n        /* \"#utility.yul\":928:935   */\n      dup5\n        /* \"#utility.yul\":924:947   */\n      sub\n        /* \"#utility.yul\":920:952   */\n      slt\n        /* \"#utility.yul\":917:1036   */\n      iszero\n      tag_125\n      jumpi\n        /* \"#utility.yul\":955:1034   */\n      tag_126\n      tag_83\n      jump\t// in\n    tag_126:\n        /* \"#utility.yul\":917:1036   */\n    tag_125:\n        /* \"#utility.yul\":1075:1076   */\n      0x00\n        /* \"#utility.yul\":1100:1153   */\n      tag_127\n        /* \"#utility.yul\":1145:1152   */\n      dup5\n        /* \"#utility.yul\":1136:1142   */\n      dup3\n        /* \"#utility.yul\":1125:1134   */\n      dup6\n        /* \"#utility.yul\":1121:1143   */\n      add\n        /* \"#utility.yul\":1100:1153   */\n      tag_88\n      jump\t// in\n    tag_127:\n        /* \"#utility.yul\":1090:1153   */\n      swap2\n      pop\n        /* \"#utility.yul\":1046:1163   */\n      pop\n        /* \"#utility.yul\":841:1170   */\n      swap3\n      swap2\n      pop\n      pop\n      jump\t// out\n        /* \"#utility.yul\":1176:1253   */\n    tag_89:\n        /* \"#utility.yul\":1213:1220   */\n      0x00\n        /* \"#utility.yul\":1242:1247   */\n      dup2\n        /* \"#utility.yul\":1231:1247   */\n      swap1\n      pop\n        /* \"#utility.yul\":1176:1253   */\n      swap2\n      swap1\n      pop\n      jump\t// out\n        /* \"#utility.yul\":1259:1377   */\n    tag_90:\n        /* \"#utility.yul\":1346:1370   */\n      tag_130\n        /* \"#utility.yul\":1364:1369   */\n      dup2\n        /* \"#utility.yul\":1346:1370   */\n      tag_89\n      jump\t// in\n    tag_130:\n        /* \"#utility.yul\":1341:1344   */\n      dup3\n        /* \"#utility.yul\":1334:1371   */\n      mstore\n        /* \"#utility.yul\":1259:1377   */\n      pop\n      pop\n      jump\t// out\n        /* \"#utility.yul\":1383:1605   */\n    tag_16:\n        /* \"#utility.yul\":1476:1480   */\n      0x00\n        /* \"#utility.yul\":1514:1516   */\n      0x20\n        /* \"#utility.yul\":1503:1512   */\n      dup3\n        /* \"#utility.yul\":1499:1517   */\n      add\n        /* \"#utility.yul\":1491:1517   */\n      swap1\n      pop\n        /* \"#utility.yul\":1527:1598   */\n      tag_132\n        /* \"#utility.yul\":1595:1596   */\n      0x00\n        /* \"#utility.yul\":1584:1593   */\n      dup4\n        /* \"#utility.yul\":1580:1597   */\n      add\n        /* \"#utility.yul\":1571:1577   */\n      dup5\n        /* \"#utility.yul\":1527:1598   */\n      tag_90\n      jump\t// in\n    tag_132:\n        /* \"#utility.yul\":1383:1605   */\n      swap3\n      swap2\n      pop\n      pop\n      jump\t// out\n        /* \"#utility.yul\":1611:1729   */\n    tag_91:\n        /* \"#utility.yul\":1698:1722   */\n      tag_134\n        /* \"#utility.yul\":1716:1721   */\n      dup2\n        /* \"#utility.yul\":1698:1722   */\n      tag_86\n      jump\t// in\n    tag_134:\n        /* \"#utility.yul\":1693:1696   */\n      dup3\n        /* \"#utility.yul\":1686:1723   */\n      mstore\n        /* \"#utility.yul\":1611:1729   */\n      pop\n      pop\n      jump\t// out\n        /* \"#utility.yul\":1735:1957   */\n    tag_21:\n        /* \"#utility.yul\":1828:1832   */\n      0x00\n        /* \"#utility.yul\":1866:1868   */\n      0x20\n        /* \"#utility.yul\":1855:1864   */\n      dup3\n        /* \"#utility.yul\":1851:1869   */\n      add\n        /* \"#utility.yul\":1843:1869   */\n      swap1\n      pop\n        /* \"#utility.yul\":1879:1950   */\n      tag_136\n        /* \"#utility.yul\":1947:1948   */\n      0x00\n        /* \"#utility.yul\":1936:1945   */\n      dup4\n        /* \"#utility.yul\":1932:1949   */\n      add\n        /* \"#utility.yul\":1923:1929   */\n      dup5\n        /* \"#utility.yul\":1879:1950   */\n      tag_91\n      jump\t// in\n    tag_136:\n        /* \"#utility.yul\":1735:1957   */\n      swap3\n      swap2\n      pop\n      pop\n      jump\t// out\n        /* \"#utility.yul\":1963:2132   */\n    tag_92:\n        /* \"#utility.yul\":2047:2058   */\n      0x00\n        /* \"#utility.yul\":2081:2087   */\n      dup3\n        /* \"#utility.yul\":2076:2079   */\n      dup3\n        /* \"#utility.yul\":2069:2088   */\n      mstore\n        /* \"#utility.yul\":2121:2125   */\n      0x20\n        /* \"#utility.yul\":2116:2119   */\n      dup3\n        /* \"#utility.yul\":2112:2126   */\n      add\n        /* \"#utility.yul\":2097:2126   */\n      swap1\n      pop\n        /* \"#utility.yul\":1963:2132   */\n      swap3\n      swap2\n      pop\n      pop\n      jump\t// out\n        /* \"#utility.yul\":2138:2311   */\n    tag_93:\n        /* \"#utility.yul\":2278:2303   */\n      0x4f6e6c79206f776e65722063616e207769746864726177000000000000000000\n        /* \"#utility.yul\":2274:2275   */\n      0x00\n        /* \"#utility.yul\":2266:2272   */\n      dup3\n        /* \"#utility.yul\":2262:2276   */\n      add\n        /* \"#utility.yul\":2255:2304   */\n      mstore\n        /* \"#utility.yul\":2138:2311   */\n      pop\n      jump\t// out\n        /* \"#utility.yul\":2317:2683   */\n    tag_94:\n        /* \"#utility.yul\":2459:2462   */\n      0x00\n        /* \"#utility.yul\":2480:2547   */\n      tag_140\n        /* \"#utility.yul\":2544:2546   */\n      0x17\n        /* \"#utility.yul\":2539:2542   */\n      dup4\n        /* \"#utility.yul\":2480:2547   */\n      tag_92\n      jump\t// in\n    tag_140:\n        /* \"#utility.yul\":2473:2547   */\n      swap2\n      pop\n        /* \"#utility.yul\":2556:2649   */\n      tag_141\n        /* \"#utility.yul\":2645:2648   */\n      dup3\n        /* \"#utility.yul\":2556:2649   */\n      tag_93\n      jump\t// in\n    tag_141:\n        /* \"#utility.yul\":2674:2676   */\n      0x20\n        /* \"#utility.yul\":2669:2672   */\n      dup3\n        /* \"#utility.yul\":2665:2677   */\n      add\n        /* \"#utility.yul\":2658:2677   */\n      swap1\n      pop\n        /* \"#utility.yul\":2317:2683   */\n      swap2\n      swap1\n      pop\n      jump\t// out\n        /* \"#utility.yul\":2689:3108   */\n    tag_31:\n        /* \"#utility.yul\":2855:2859   */\n      0x00\n        /* \"#utility.yul\":2893:2895   */\n      0x20\n        /* \"#utility.yul\":2882:2891   */\n      dup3\n        /* \"#utility.yul\":2878:2896   */\n      add\n        /* \"#utility.yul\":2870:2896   */\n      swap1\n      pop\n        /* \"#utility.yul\":2942:2951   */\n      dup2\n        /* \"#utility.yul\":2936:2940   */\n      dup2\n        /* \"#utility.yul\":2932:2952   */\n      sub\n        /* \"#utility.yul\":2928:2929   */\n      0x00\n        /* \"#utility.yul\":2917:2926   */\n      dup4\n        /* \"#utility.yul\":2913:2930   */\n      add\n        /* \"#utility.yul\":2906:2953   */\n      mstore\n        /* \"#utility.yul\":2970:3101   */\n      tag_143\n        /* \"#utility.yul\":3096:3100   */\n      dup2\n        /* \"#utility.yul\":2970:3101   */\n      tag_94\n      jump\t// in\n    tag_143:\n        /* \"#utility.yul\":2962:3101   */\n      swap1\n      pop\n        /* \"#utility.yul\":2689:3108   */\n      swap2\n      swap1\n      pop\n      jump\t// out\n        /* \"#utility.yul\":3114:3294   */\n    tag_38:\n        /* \"#utility.yul\":3162:3239   */\n      0x4e487b7100000000000000000000000000000000000000000000000000000000\n        /* \"#utility.yul\":3159:3160   */\n      0x00\n        /* \"#utility.yul\":3152:3240   */\n      mstore\n        /* \"#utility.yul\":3259:3263   */\n      0x32\n        /* \"#utility.yul\":3256:3257   */\n      0x04\n        /* \"#utility.yul\":3249:3264   */\n      mstore\n        /* \"#utility.yul\":3283:3287   */\n      0x24\n        /* \"#utility.yul\":3280:3281   */\n      0x00\n        /* \"#utility.yul\":3273:3288   */\n      revert\n        /* \"#utility.yul\":3300:3480   */\n    tag_42:\n        /* \"#utility.yul\":3348:3425   */\n      0x4e487b7100000000000000000000000000000000000000000000000000000000\n        /* \"#utility.yul\":3345:3346   */\n      0x00\n        /* \"#utility.yul\":3338:3426   */\n      mstore\n        /* \"#utility.yul\":3445:3449   */\n      0x41\n        /* \"#utility.yul\":3442:3443   */\n      0x04\n        /* \"#utility.yul\":3435:3450   */\n      mstore\n        /* \"#utility.yul\":3469:3473   */\n      0x24\n        /* \"#utility.yul\":3466:3467   */\n      0x00\n        /* \"#utility.yul\":3459:3474   */\n      revert\n        /* \"#utility.yul\":3486:3633   */\n    tag_95:\n        /* \"#utility.yul\":3587:3598   */\n      0x00\n        /* \"#utility.yul\":3624:3627   */\n      dup2\n        /* \"#utility.yul\":3609:3627   */\n      swap1\n      pop\n        /* \"#utility.yul\":3486:3633   */\n      swap3\n      swap2\n      pop\n      pop\n      jump\t// out\n        /* \"#utility.yul\":3639:3753   */\n    tag_96:\n      pop\n      jump\t// out\n        /* \"#utility.yul\":3759:4157   */\n    tag_97:\n        /* \"#utility.yul\":3918:3921   */\n      0x00\n        /* \"#utility.yul\":3939:4022   */\n      tag_149\n        /* \"#utility.yul\":4020:4021   */\n      0x00\n        /* \"#utility.yul\":4015:4018   */\n      dup4\n        /* \"#utility.yul\":3939:4022   */\n      tag_95\n      jump\t// in\n    tag_149:\n        /* \"#utility.yul\":3932:4022   */\n      swap2\n      pop\n        /* \"#utility.yul\":4031:4124   */\n      tag_150\n        /* \"#utility.yul\":4120:4123   */\n      dup3\n        /* \"#utility.yul\":4031:4124   */\n      tag_96\n      jump\t// in\n    tag_150:\n        /* \"#utility.yul\":4149:4150   */\n      0x00\n        /* \"#utility.yul\":4144:4147   */\n      dup3\n        /* \"#utility.yul\":4140:4151   */\n      add\n        /* \"#utility.yul\":4133:4151   */\n      swap1\n      pop\n        /* \"#utility.yul\":3759:4157   */\n      swap2\n      swap1\n      pop\n      jump\t// out\n        /* \"#utility.yul\":4163:4542   */\n    tag_47:\n        /* \"#utility.yul\":4347:4350   */\n      0x00\n        /* \"#utility.yul\":4369:4516   */\n      tag_152\n        /* \"#utility.yul\":4512:4515   */\n      dup3\n        /* \"#utility.yul\":4369:4516   */\n      tag_97\n      jump\t// in\n    tag_152:\n        /* \"#utility.yul\":4362:4516   */\n      swap2\n      pop\n        /* \"#utility.yul\":4533:4536   */\n      dup2\n        /* \"#utility.yul\":4526:4536   */\n      swap1\n      pop\n        /* \"#utility.yul\":4163:4542   */\n      swap2\n      swap1\n      pop\n      jump\t// out\n        /* \"#utility.yul\":4548:4716   */\n    tag_98:\n        /* \"#utility.yul\":4688:4708   */\n      0x5472616e73616374696f6e206661696c65640000000000000000000000000000\n        /* \"#utility.yul\":4684:4685   */\n      0x00\n        /* \"#utility.yul\":4676:4682   */\n      dup3\n        /* \"#utility.yul\":4672:4686   */\n      add\n        /* \"#utility.yul\":4665:4709   */\n      mstore\n        /* \"#utility.yul\":4548:4716   */\n      pop\n      jump\t// out\n        /* \"#utility.yul\":4722:5088   */\n    tag_99:\n        /* \"#utility.yul\":4864:4867   */\n      0x00\n        /* \"#utility.yul\":4885:4952   */\n      tag_155\n        /* \"#utility.yul\":4949:4951   */\n      0x12\n        /* \"#utility.yul\":4944:4947   */\n      dup4\n        /* \"#utility.yul\":4885:4952   */\n      tag_92\n      jump\t// in\n    tag_155:\n        /* \"#utility.yul\":4878:4952   */\n      swap2\n      pop\n        /* \"#utility.yul\":4961:5054   */\n      tag_156\n        /* \"#utility.yul\":5050:5053   */\n      dup3\n        /* \"#utility.yul\":4961:5054   */\n      tag_98\n      jump\t// in\n    tag_156:\n        /* \"#utility.yul\":5079:5081   */\n      0x20\n        /* \"#utility.yul\":5074:5077   */\n      dup3\n        /* \"#utility.yul\":5070:5082   */\n      add\n        /* \"#utility.yul\":5063:5082   */\n      swap1\n      pop\n        /* \"#utility.yul\":4722:5088   */\n      swap2\n      swap1\n      pop\n      jump\t// out\n        /* \"#utility.yul\":5094:5513   */\n    tag_53:\n        /* \"#utility.yul\":5260:5264   */\n      0x00\n        /* \"#utility.yul\":5298:5300   */\n      0x20\n        /* \"#utility.yul\":5287:5296   */\n      dup3\n        /* \"#utility.yul\":5283:5301   */\n      add\n        /* \"#utility.yul\":5275:5301   */\n      swap1\n      pop\n        /* \"#utility.yul\":5347:5356   */\n      dup2\n        /* \"#utility.yul\":5341:5345   */\n      dup2\n        /* \"#utility.yul\":5337:5357   */\n      sub\n        /* \"#utility.yul\":5333:5334   */\n      0x00\n        /* \"#utility.yul\":5322:5331   */\n      dup4\n        /* \"#utility.yul\":5318:5335   */\n      add\n        /* \"#utility.yul\":5311:5358   */\n      mstore\n        /* \"#utility.yul\":5375:5506   */\n      tag_158\n        /* \"#utility.yul\":5501:5505   */\n      dup2\n        /* \"#utility.yul\":5375:5506   */\n      tag_99\n      jump\t// in\n    tag_158:\n        /* \"#utility.yul\":5367:5506   */\n      swap1\n      pop\n        /* \"#utility.yul\":5094:5513   */\n      swap2\n      swap1\n      pop\n      jump\t// out\n        /* \"#utility.yul\":5519:5699   */\n    tag_100:\n        /* \"#utility.yul\":5659:5691   */\n      0x4d696e696d756d2066756e64696e6720616d6f756e74206e6f74206d65740000\n        /* \"#utility.yul\":5655:5656   */\n      0x00\n        /* \"#utility.yul\":5647:5653   */\n      dup3\n        /* \"#utility.yul\":5643:5657   */\n      add\n        /* \"#utility.yul\":5636:5692   */\n      mstore\n        /* \"#utility.yul\":5519:5699   */\n      pop\n      jump\t// out\n        /* \"#utility.yul\":5705:6071   */\n    tag_101:\n        /* \"#utility.yul\":5847:5850   */\n      0x00\n        /* \"#utility.yul\":5868:5935   */\n      tag_161\n        /* \"#utility.yul\":5932:5934   */\n      0x1e\n        /* \"#utility.yul\":5927:5930   */\n      dup4\n        /* \"#utility.yul\":5868:5935   */\n      tag_92\n      jump\t// in\n    tag_161:\n        /* \"#utility.yul\":5861:5935   */\n      swap2\n      pop\n        /* \"#utility.yul\":5944:6037   */\n      tag_162\n        /* \"#utility.yul\":6033:6036   */\n      dup3\n        /* \"#utility.yul\":5944:6037   */\n      tag_100\n      jump\t// in\n    tag_162:\n        /* \"#utility.yul\":6062:6064   */\n      0x20\n        /* \"#utility.yul\":6057:6060   */\n      dup3\n        /* \"#utility.yul\":6053:6065   */\n      add\n        /* \"#utility.yul\":6046:6065   */\n      swap1\n      pop\n        /* \"#utility.yul\":5705:6071   */\n      swap2\n      swap1\n      pop\n      jump\t// out\n        /* \"#utility.yul\":6077:6496   */\n    tag_59:\n        /* \"#utility.yul\":6243:6247   */\n      0x00\n        /* \"#utility.yul\":6281:6283   */\n      0x20\n        /* \"#utility.yul\":6270:6279   */\n      dup3\n        /* \"#utility.yul\":6266:6284   */\n      add\n        /* \"#utility.yul\":6258:6284   */\n      swap1\n      pop\n        /* \"#utility.yul\":6330:6339   */\n      dup2\n        /* \"#utility.yul\":6324:6328   */\n      dup2\n        /* \"#utility.yul\":6320:6340   */\n      sub\n        /* \"#utility.yul\":6316:6317   */\n      0x00\n        /* \"#utility.yul\":6305:6314   */\n      dup4\n        /* \"#utility.yul\":6301:6318   */\n      add\n        /* \"#utility.yul\":6294:6341   */\n      mstore\n        /* \"#utility.yul\":6358:6489   */\n      tag_164\n        /* \"#utility.yul\":6484:6488   */\n      dup2\n        /* \"#utility.yul\":6358:6489   */\n      tag_101\n      jump\t// in\n    tag_164:\n        /* \"#utility.yul\":6350:6489   */\n      swap1\n      pop\n        /* \"#utility.yul\":6077:6496   */\n      swap2\n      swap1\n      pop\n      jump\t// out\n        /* \"#utility.yul\":6502:6682   */\n    tag_102:\n        /* \"#utility.yul\":6550:6627   */\n      0x4e487b7100000000000000000000000000000000000000000000000000000000\n        /* \"#utility.yul\":6547:6548   */\n      0x00\n        /* \"#utility.yul\":6540:6628   */\n      mstore\n        /* \"#utility.yul\":6647:6651   */\n      0x11\n        /* \"#utility.yul\":6644:6645   */\n      0x04\n        /* \"#utility.yul\":6637:6652   */\n      mstore\n        /* \"#utility.yul\":6671:6675   */\n      0x24\n        /* \"#utility.yul\":6668:6669   */\n      0x00\n        /* \"#utility.yul\":6661:6676   */\n      revert\n        /* \"#utility.yul\":6688:6879   */\n    tag_61:\n        /* \"#utility.yul\":6728:6731   */\n      0x00\n        /* \"#utility.yul\":6747:6767   */\n      tag_167\n        /* \"#utility.yul\":6765:6766   */\n      dup3\n        /* \"#utility.yul\":6747:6767   */\n      tag_89\n      jump\t// in\n    tag_167:\n        /* \"#utility.yul\":6742:6767   */\n      swap2\n      pop\n        /* \"#utility.yul\":6781:6801   */\n      tag_168\n        /* \"#utility.yul\":6799:6800   */\n      dup4\n        /* \"#utility.yul\":6781:6801   */\n      tag_89\n      jump\t// in\n    tag_168:\n        /* \"#utility.yul\":6776:6801   */\n      swap3\n      pop\n        /* \"#utility.yul\":6824:6825   */\n      dup3\n        /* \"#utility.yul\":6821:6822   */\n      dup3\n        /* \"#utility.yul\":6817:6826   */\n      add\n        /* \"#utility.yul\":6810:6826   */\n      swap1\n      pop\n        /* \"#utility.yul\":6845:6848   */\n      dup1\n        /* \"#utility.yul\":6842:6843   */\n      dup3\n        /* \"#utility.yul\":6839:6849   */\n      gt\n        /* \"#utility.yul\":6836:6872   */\n      iszero\n      tag_169\n      jumpi\n        /* \"#utility.yul\":6852:6870   */\n      tag_170\n      tag_102\n      jump\t// in\n    tag_170:\n        /* \"#utility.yul\":6836:6872   */\n    tag_169:\n        /* \"#utility.yul\":6688:6879   */\n      swap3\n      swap2\n      pop\n      pop\n      jump\t// out\n        /* \"#utility.yul\":6885:7295   */\n    tag_66:\n        /* \"#utility.yul\":6925:6932   */\n      0x00\n        /* \"#utility.yul\":6948:6968   */\n      tag_172\n        /* \"#utility.yul\":6966:6967   */\n      dup3\n        /* \"#utility.yul\":6948:6968   */\n      tag_89\n      jump\t// in\n    tag_172:\n        /* \"#utility.yul\":6943:6968   */\n      swap2\n      pop\n        /* \"#utility.yul\":6982:7002   */\n      tag_173\n        /* \"#utility.yul\":7000:7001   */\n      dup4\n        /* \"#utility.yul\":6982:7002   */\n      tag_89\n      jump\t// in\n    tag_173:\n        /* \"#utility.yul\":6977:7002   */\n      swap3\n      pop\n        /* \"#utility.yul\":7037:7038   */\n      dup3\n        /* \"#utility.yul\":7034:7035   */\n      dup3\n        /* \"#utility.yul\":7030:7039   */\n      mul\n        /* \"#utility.yul\":7059:7089   */\n      tag_174\n        /* \"#utility.yul\":7077:7088   */\n      dup2\n        /* \"#utility.yul\":7059:7089   */\n      tag_89\n      jump\t// in\n    tag_174:\n        /* \"#utility.yul\":7048:7089   */\n      swap2\n      pop\n        /* \"#utility.yul\":7238:7239   */\n      dup3\n        /* \"#utility.yul\":7229:7236   */\n      dup3\n        /* \"#utility.yul\":7225:7240   */\n      div\n        /* \"#utility.yul\":7222:7223   */\n      dup5\n        /* \"#utility.yul\":7219:7241   */\n      eq\n        /* \"#utility.yul\":7199:7200   */\n      dup4\n        /* \"#utility.yul\":7192:7201   */\n      iszero\n        /* \"#utility.yul\":7172:7255   */\n      or\n        /* \"#utility.yul\":7149:7288   */\n      tag_175\n      jumpi\n        /* \"#utility.yul\":7268:7286   */\n      tag_176\n      tag_102\n      jump\t// in\n    tag_176:\n        /* \"#utility.yul\":7149:7288   */\n    tag_175:\n        /* \"#utility.yul\":6933:7295   */\n      pop\n        /* \"#utility.yul\":6885:7295   */\n      swap3\n      swap2\n      pop\n      pop\n      jump\t// out\n        /* \"#utility.yul\":7301:7481   */\n    tag_103:\n        /* \"#utility.yul\":7349:7426   */\n      0x4e487b7100000000000000000000000000000000000000000000000000000000\n        /* \"#utility.yul\":7346:7347   */\n      0x00\n        /* \"#utility.yul\":7339:7427   */\n      mstore\n        /* \"#utility.yul\":7446:7450   */\n      0x12\n        /* \"#utility.yul\":7443:7444   */\n      0x04\n        /* \"#utility.yul\":7436:7451   */\n      mstore\n        /* \"#utility.yul\":7470:7474   */\n      0x24\n        /* \"#utility.yul\":7467:7468   */\n      0x00\n        /* \"#utility.yul\":7460:7475   */\n      revert\n        /* \"#utility.yul\":7487:7672   */\n    tag_68:\n        /* \"#utility.yul\":7527:7528   */\n      0x00\n        /* \"#utility.yul\":7544:7564   */\n      tag_179\n        /* \"#utility.yul\":7562:7563   */\n      dup3\n        /* \"#utility.yul\":7544:7564   */\n      tag_89\n      jump\t// in\n    tag_179:\n        /* \"#utility.yul\":7539:7564   */\n      swap2\n      pop\n        /* \"#utility.yul\":7578:7598   */\n      tag_180\n        /* \"#utility.yul\":7596:7597   */\n      dup4\n        /* \"#utility.yul\":7578:7598   */\n      tag_89\n      jump\t// in\n    tag_180:\n        /* \"#utility.yul\":7573:7598   */\n      swap3\n      pop\n        /* \"#utility.yul\":7617:7618   */\n      dup3\n        /* \"#utility.yul\":7607:7642   */\n      tag_181\n      jumpi\n        /* \"#utility.yul\":7622:7640   */\n      tag_182\n      tag_103\n      jump\t// in\n    tag_182:\n        /* \"#utility.yul\":7607:7642   */\n    tag_181:\n        /* \"#utility.yul\":7664:7665   */\n      dup3\n        /* \"#utility.yul\":7661:7662   */\n      dup3\n        /* \"#utility.yul\":7657:7666   */\n      div\n        /* \"#utility.yul\":7652:7666   */\n      swap1\n      pop\n        /* \"#utility.yul\":7487:7672   */\n      swap3\n      swap2\n      pop\n      pop\n      jump\t// out\n        /* \"#utility.yul\":7678:7783   */\n    tag_104:\n        /* \"#utility.yul\":7714:7721   */\n      0x00\n        /* \"#utility.yul\":7754:7776   */\n      0xffffffffffffffffffff\n        /* \"#utility.yul\":7747:7752   */\n      dup3\n        /* \"#utility.yul\":7743:7777   */\n      and\n        /* \"#utility.yul\":7732:7777   */\n      swap1\n      pop\n        /* \"#utility.yul\":7678:7783   */\n      swap2\n      swap1\n      pop\n      jump\t// out\n        /* \"#utility.yul\":7789:7909   */\n    tag_105:\n        /* \"#utility.yul\":7861:7884   */\n      tag_185\n        /* \"#utility.yul\":7878:7883   */\n      dup2\n        /* \"#utility.yul\":7861:7884   */\n      tag_104\n      jump\t// in\n    tag_185:\n        /* \"#utility.yul\":7854:7859   */\n      dup2\n        /* \"#utility.yul\":7851:7885   */\n      eq\n        /* \"#utility.yul\":7841:7903   */\n      tag_186\n      jumpi\n        /* \"#utility.yul\":7899:7900   */\n      0x00\n        /* \"#utility.yul\":7896:7897   */\n      dup1\n        /* \"#utility.yul\":7889:7901   */\n      revert\n        /* \"#utility.yul\":7841:7903   */\n    tag_186:\n        /* \"#utility.yul\":7789:7909   */\n      pop\n      jump\t// out\n        /* \"#utility.yul\":7915:8056   */\n    tag_106:\n        /* \"#utility.yul\":7971:7976   */\n      0x00\n        /* \"#utility.yul\":8002:8008   */\n      dup2\n        /* \"#utility.yul\":7996:8009   */\n      mload\n        /* \"#utility.yul\":7987:8009   */\n      swap1\n      pop\n        /* \"#utility.yul\":8018:8050   */\n      tag_188\n        /* \"#utility.yul\":8044:8049   */\n      dup2\n        /* \"#utility.yul\":8018:8050   */\n      tag_105\n      jump\t// in\n    tag_188:\n        /* \"#utility.yul\":7915:8056   */\n      swap3\n      swap2\n      pop\n      pop\n      jump\t// out\n        /* \"#utility.yul\":8062:8138   */\n    tag_107:\n        /* \"#utility.yul\":8098:8105   */\n      0x00\n        /* \"#utility.yul\":8127:8132   */\n      dup2\n        /* \"#utility.yul\":8116:8132   */\n      swap1\n      pop\n        /* \"#utility.yul\":8062:8138   */\n      swap2\n      swap1\n      pop\n      jump\t// out\n        /* \"#utility.yul\":8144:8264   */\n    tag_108:\n        /* \"#utility.yul\":8216:8239   */\n      tag_191\n        /* \"#utility.yul\":8233:8238   */\n      dup2\n        /* \"#utility.yul\":8216:8239   */\n      tag_107\n      jump\t// in\n    tag_191:\n        /* \"#utility.yul\":8209:8214   */\n      dup2\n        /* \"#utility.yul\":8206:8240   */\n      eq\n        /* \"#utility.yul\":8196:8258   */\n      tag_192\n      jumpi\n        /* \"#utility.yul\":8254:8255   */\n      0x00\n        /* \"#utility.yul\":8251:8252   */\n      dup1\n        /* \"#utility.yul\":8244:8256   */\n      revert\n        /* \"#utility.yul\":8196:8258   */\n    tag_192:\n        /* \"#utility.yul\":8144:8264   */\n      pop\n      jump\t// out\n        /* \"#utility.yul\":8270:8411   */\n    tag_109:\n        /* \"#utility.yul\":8326:8331   */\n      0x00\n        /* \"#utility.yul\":8357:8363   */\n      dup2\n        /* \"#utility.yul\":8351:8364   */\n      mload\n        /* \"#utility.yul\":8342:8364   */\n      swap1\n      pop\n        /* \"#utility.yul\":8373:8405   */\n      tag_194\n        /* \"#utility.yul\":8399:8404   */\n      dup2\n        /* \"#utility.yul\":8373:8405   */\n      tag_108\n      jump\t// in\n    tag_194:\n        /* \"#utility.yul\":8270:8411   */\n      swap3\n      swap2\n      pop\n      pop\n      jump\t// out\n        /* \"#utility.yul\":8417:8539   */\n    tag_110:\n        /* \"#utility.yul\":8490:8514   */\n      tag_196\n        /* \"#utility.yul\":8508:8513   */\n      dup2\n        /* \"#utility.yul\":8490:8514   */\n      tag_89\n      jump\t// in\n    tag_196:\n        /* \"#utility.yul\":8483:8488   */\n      dup2\n        /* \"#utility.yul\":8480:8515   */\n      eq\n        /* \"#utility.yul\":8470:8533   */\n      tag_197\n      jumpi\n        /* \"#utility.yul\":8529:8530   */\n      0x00\n        /* \"#utility.yul\":8526:8527   */\n      dup1\n        /* \"#utility.yul\":8519:8531   */\n      revert\n        /* \"#utility.yul\":8470:8533   */\n    tag_197:\n        /* \"#utility.yul\":8417:8539   */\n      pop\n      jump\t// out\n        /* \"#utility.yul\":8545:8688   */\n    tag_111:\n        /* \"#utility.yul\":8602:8607   */\n      0x00\n        /* \"#utility.yul\":8633:8639   */\n      dup2\n        /* \"#utility.yul\":8627:8640   */\n      mload\n        /* \"#utility.yul\":8618:8640   */\n      swap1\n      pop\n        /* \"#utility.yul\":8649:8682   */\n      tag_199\n        /* \"#utility.yul\":8676:8681   */\n      dup2\n        /* \"#utility.yul\":8649:8682   */\n      tag_110\n      jump\t// in\n    tag_199:\n        /* \"#utility.yul\":8545:8688   */\n      swap3\n      swap2\n      pop\n      pop\n      jump\t// out\n        /* \"#utility.yul\":8694:9665   */\n    tag_73:\n        /* \"#utility.yul\":8797:8803   */\n      0x00\n        /* \"#utility.yul\":8805:8811   */\n      dup1\n        /* \"#utility.yul\":8813:8819   */\n      0x00\n        /* \"#utility.yul\":8821:8827   */\n      dup1\n        /* \"#utility.yul\":8829:8835   */\n      0x00\n        /* \"#utility.yul\":8878:8881   */\n      0xa0\n        /* \"#utility.yul\":8866:8875   */\n      dup7\n        /* \"#utility.yul\":8857:8864   */\n      dup9\n        /* \"#utility.yul\":8853:8876   */\n      sub\n        /* \"#utility.yul\":8849:8882   */\n      slt\n        /* \"#utility.yul\":8846:8966   */\n      iszero\n      tag_201\n      jumpi\n        /* \"#utility.yul\":8885:8964   */\n      tag_202\n      tag_83\n      jump\t// in\n    tag_202:\n        /* \"#utility.yul\":8846:8966   */\n    tag_201:\n        /* \"#utility.yul\":9005:9006   */\n      0x00\n        /* \"#utility.yul\":9030:9093   */\n      tag_203\n        /* \"#utility.yul\":9085:9092   */\n      dup9\n        /* \"#utility.yul\":9076:9082   */\n      dup3\n        /* \"#utility.yul\":9065:9074   */\n      dup10\n        /* \"#utility.yul\":9061:9083   */\n      add\n        /* \"#utility.yul\":9030:9093   */\n      tag_106\n      jump\t// in\n    tag_203:\n        /* \"#utility.yul\":9020:9093   */\n      swap6\n      pop\n        /* \"#utility.yul\":8976:9103   */\n      pop\n        /* \"#utility.yul\":9142:9144   */\n      0x20\n        /* \"#utility.yul\":9168:9231   */\n      tag_204\n        /* \"#utility.yul\":9223:9230   */\n      dup9\n        /* \"#utility.yul\":9214:9220   */\n      dup3\n        /* \"#utility.yul\":9203:9212   */\n      dup10\n        /* \"#utility.yul\":9199:9221   */\n      add\n        /* \"#utility.yul\":9168:9231   */\n      tag_109\n      jump\t// in\n    tag_204:\n        /* \"#utility.yul\":9158:9231   */\n      swap5\n      pop\n        /* \"#utility.yul\":9113:9241   */\n      pop\n        /* \"#utility.yul\":9280:9282   */\n      0x40\n        /* \"#utility.yul\":9306:9370   */\n      tag_205\n        /* \"#utility.yul\":9362:9369   */\n      dup9\n        /* \"#utility.yul\":9353:9359   */\n      dup3\n        /* \"#utility.yul\":9342:9351   */\n      dup10\n        /* \"#utility.yul\":9338:9360   */\n      add\n        /* \"#utility.yul\":9306:9370   */\n      tag_111\n      jump\t// in\n    tag_205:\n        /* \"#utility.yul\":9296:9370   */\n      swap4\n      pop\n        /* \"#utility.yul\":9251:9380   */\n      pop\n        /* \"#utility.yul\":9419:9421   */\n      0x60\n        /* \"#utility.yul\":9445:9509   */\n      tag_206\n        /* \"#utility.yul\":9501:9508   */\n      dup9\n        /* \"#utility.yul\":9492:9498   */\n      dup3\n        /* \"#utility.yul\":9481:9490   */\n      dup10\n        /* \"#utility.yul\":9477:9499   */\n      add\n        /* \"#utility.yul\":9445:9509   */\n      tag_111\n      jump\t// in\n    tag_206:\n        /* \"#utility.yul\":9435:9509   */\n      swap3\n      pop\n        /* \"#utility.yul\":9390:9519   */\n      pop\n        /* \"#utility.yul\":9558:9561   */\n      0x80\n        /* \"#utility.yul\":9585:9648   */\n      tag_207\n        /* \"#utility.yul\":9640:9647   */\n      dup9\n        /* \"#utility.yul\":9631:9637   */\n      dup3\n        /* \"#utility.yul\":9620:9629   */\n      dup10\n        /* \"#utility.yul\":9616:9638   */\n      add\n        /* \"#utility.yul\":9585:9648   */\n      tag_106\n      jump\t// in\n    tag_207:\n        /* \"#utility.yul\":9575:9648   */\n      swap2\n      pop\n        /* \"#utility.yul\":9529:9658   */\n      pop\n        /* \"#utility.yul\":8694:9665   */\n      swap3\n      swap6\n      pop\n      swap3\n      swap6\n      swap1\n      swap4\n      pop\n      jump\t// out\n\n    auxdata: 0xa264697066735822122018814e08bbc679281f6baf543c7aea0eb0cbe68e9057435b1de0905efb496b1f64736f6c63430008180033\n}\n",
				"bytecode": {
					"linkReferences": {},
					"object": "6080604052674563918244f400005f5534801561001a575f80fd5b503360035f6101000a81548173ffffffffffffffffffffffffffffffffffffffff021916908373ffffffffffffffffffffffffffffffffffffffff160217905550610aa0806100685f395ff3fe608060405260043610610049575f3560e01c80633ccfd60b1461004d5780633e47d6f3146100635780638da5cb5b1461009f578063b60d4288146100c9578063dc992aa0146100d3575b5f80fd5b348015610058575f80fd5b506100616100fd565b005b34801561006e575f80fd5b50610089600480360381019061008491906105f2565b610335565b6040516100969190610635565b60405180910390f35b3480156100aa575f80fd5b506100b361034a565b6040516100c0919061065d565b60405180910390f35b6100d161036f565b005b3480156100de575f80fd5b506100e7610410565b6040516100f49190610635565b60405180910390f35b60035f9054906101000a900473ffffffffffffffffffffffffffffffffffffffff1673ffffffffffffffffffffffffffffffffffffffff163373ffffffffffffffffffffffffffffffffffffffff161461018c576040517f08c379a0000000000000000000000000000000000000000000000000000000008152600401610183906106d0565b60405180910390fd5b5f5b60018054905081101561022a575f600182815481106101b0576101af6106ee565b5b905f5260205f20015f9054906101000a900473ffffffffffffffffffffffffffffffffffffffff1690505f60025f8373ffffffffffffffffffffffffffffffffffffffff1673ffffffffffffffffffffffffffffffffffffffff1681526020019081526020015f208190555050808060010191505061018e565b505f67ffffffffffffffff8111156102455761024461071b565b5b6040519080825280602002602001820160405280156102735781602001602082028036833780820191505090505b50600190805190602001906102899291906104f2565b505f3373ffffffffffffffffffffffffffffffffffffffff16476040516102af90610775565b5f6040518083038185875af1925050503d805f81146102e9576040519150601f19603f3d011682016040523d82523d5f602084013e6102ee565b606091505b5050905080610332576040517f08c379a0000000000000000000000000000000000000000000000000000000008152600401610329906107d3565b60405180910390fd5b50565b6002602052805f5260405f205f915090505481565b60035f9054906101000a900473ffffffffffffffffffffffffffffffffffffffff1681565b5f5461037a34610415565b10156103bb576040517f08c379a00000000000000000000000000000000000000000000000000000000081526004016103b29061083b565b60405180910390fd5b3460025f3373ffffffffffffffffffffffffffffffffffffffff1673ffffffffffffffffffffffffffffffffffffffff1681526020019081526020015f205f8282546104079190610886565b92505081905550565b5f5481565b5f8061041f61044d565b90505f670de0b6b3a7640000848361043791906108b9565b6104419190610927565b90508092505050919050565b5f8073694aa1769357215de4fac081bf1f309adc32530690505f8173ffffffffffffffffffffffffffffffffffffffff1663feaf968c6040518163ffffffff1660e01b815260040160a060405180830381865afa1580156104b0573d5f803e3d5ffd5b505050506040513d601f19601f820116820180604052508101906104d491906109f3565b5050509150506402540be400816104eb91906108b9565b9250505090565b828054828255905f5260205f20908101928215610568579160200282015b82811115610567578251825f6101000a81548173ffffffffffffffffffffffffffffffffffffffff021916908373ffffffffffffffffffffffffffffffffffffffff16021790555091602001919060010190610510565b5b5090506105759190610579565b5090565b5b80821115610590575f815f90555060010161057a565b5090565b5f80fd5b5f73ffffffffffffffffffffffffffffffffffffffff82169050919050565b5f6105c182610598565b9050919050565b6105d1816105b7565b81146105db575f80fd5b50565b5f813590506105ec816105c8565b92915050565b5f6020828403121561060757610606610594565b5b5f610614848285016105de565b91505092915050565b5f819050919050565b61062f8161061d565b82525050565b5f6020820190506106485f830184610626565b92915050565b610657816105b7565b82525050565b5f6020820190506106705f83018461064e565b92915050565b5f82825260208201905092915050565b7f4f6e6c79206f776e65722063616e2077697468647261770000000000000000005f82015250565b5f6106ba601783610676565b91506106c582610686565b602082019050919050565b5f6020820190508181035f8301526106e7816106ae565b9050919050565b7f4e487b71000000000000000000000000000000000000000000000000000000005f52603260045260245ffd5b7f4e487b71000000000000000000000000000000000000000000000000000000005f52604160045260245ffd5b5f81905092915050565b50565b5f6107605f83610748565b915061076b82610752565b5f82019050919050565b5f61077f82610755565b9150819050919050565b7f5472616e73616374696f6e206661696c656400000000000000000000000000005f82015250565b5f6107bd601283610676565b91506107c882610789565b602082019050919050565b5f6020820190508181035f8301526107ea816107b1565b9050919050565b7f4d696e696d756d2066756e64696e6720616d6f756e74206e6f74206d657400005f82015250565b5f610825601e83610676565b9150610830826107f1565b602082019050919050565b5f6020820190508181035f83015261085281610819565b9050919050565b7f4e487b71000000000000000000000000000000000000000000000000000000005f52601160045260245ffd5b5f6108908261061d565b915061089b8361061d565b92508282019050808211156108b3576108b2610859565b5b92915050565b5f6108c38261061d565b91506108ce8361061d565b92508282026108dc8161061d565b915082820484148315176108f3576108f2610859565b5b5092915050565b7f4e487b71000000000000000000000000000000000000000000000000000000005f52601260045260245ffd5b5f6109318261061d565b915061093c8361061d565b92508261094c5761094b6108fa565b5b828204905092915050565b5f69ffffffffffffffffffff82169050919050565b61097581610957565b811461097f575f80fd5b50565b5f815190506109908161096c565b92915050565b5f819050919050565b6109a881610996565b81146109b2575f80fd5b50565b5f815190506109c38161099f565b92915050565b6109d28161061d565b81146109dc575f80fd5b50565b5f815190506109ed816109c9565b92915050565b5f805f805f60a08688031215610a0c57610a0b610594565b5b5f610a1988828901610982565b9550506020610a2a888289016109b5565b9450506040610a3b888289016109df565b9350506060610a4c888289016109df565b9250506080610a5d88828901610982565b915050929550929590935056fea264697066735822122018814e08bbc679281f6baf543c7aea0eb0cbe68e9057435b1de0905efb496b1f64736f6c63430008180033",
					"opcodes": "PUSH1 0x80 PUSH1 0x40 MSTORE PUSH8 0x4563918244F40000 PUSH0 SSTORE CALLVALUE DUP1 ISZERO PUSH2 0x1A JUMPI PUSH0 DUP1 REVERT JUMPDEST POP CALLER PUSH1 0x3 PUSH0 PUSH2 0x100 EXP DUP2 SLOAD DUP2 PUSH20 0xFFFFFFFFFFFFFFFFFFFFFFFFFFFFFFFFFFFFFFFF MUL NOT AND SWAP1 DUP4 PUSH20 0xFFFFFFFFFFFFFFFFFFFFFFFFFFFFFFFFFFFFFFFF AND MUL OR SWAP1 SSTORE POP PUSH2 0xAA0 DUP1 PUSH2 0x68 PUSH0 CODECOPY PUSH0 RETURN INVALID PUSH1 0x80 PUSH1 0x40 MSTORE PUSH1 0x4 CALLDATASIZE LT PUSH2 0x49 JUMPI PUSH0 CALLDATALOAD PUSH1 0xE0 SHR DUP1 PUSH4 0x3CCFD60B EQ PUSH2 0x4D JUMPI DUP1 PUSH4 0x3E47D6F3 EQ PUSH2 0x63 JUMPI DUP1 PUSH4 0x8DA5CB5B EQ PUSH2 0x9F JUMPI DUP1 PUSH4 0xB60D4288 EQ PUSH2 0xC9 JUMPI DUP1 PUSH4 0xDC992AA0 EQ PUSH2 0xD3 JUMPI JUMPDEST PUSH0 DUP1 REVERT JUMPDEST CALLVALUE DUP1 ISZERO PUSH2 0x58 JUMPI PUSH0 DUP1 REVERT JUMPDEST POP PUSH2 0x61 PUSH2 0xFD JUMP JUMPDEST STOP JUMPDEST CALLVALUE DUP1 ISZERO PUSH2 0x6E JUMPI PUSH0 DUP1 REVERT JUMPDEST POP PUSH2 0x89 PUSH1 0x4 DUP1 CALLDATASIZE SUB DUP2 ADD SWAP1 PUSH2 0x84 SWAP2 SWAP1 PUSH2 0x5F2 JUMP JUMPDEST PUSH2 0x335 JUMP JUMPDEST PUSH1 0x40 MLOAD PUSH2 0x96 SWAP2 SWAP1 PUSH2 0x635 JUMP JUMPDEST PUSH1 0x40 MLOAD DUP1 SWAP2 SUB SWAP1 RETURN JUMPDEST CALLVALUE DUP1 ISZERO PUSH2 0xAA JUMPI PUSH0 DUP1 REVERT JUMPDEST POP PUSH2 0xB3 PUSH2 0x34A JUMP JUMPDEST PUSH1 0x40 MLOAD PUSH2 0xC0 SWAP2 SWAP1 PUSH2 0x65D JUMP JUMPDEST PUSH1 0x40 MLOAD DUP1 SWAP2 SUB SWAP1 RETURN JUMPDEST PUSH2 0xD1 PUSH2 0x36F JUMP JUMPDEST STOP JUMPDEST CALLVALUE DUP1 ISZERO PUSH2 0xDE JUMPI PUSH0 DUP1 REVERT JUMPDEST POP PUSH2 0xE7 PUSH2 0x410 JUMP JUMPDEST PUSH1 0x40 MLOAD PUSH2 0xF4 SWAP2 SWAP1 PUSH2 0x635 JUMP JUMPDEST PUSH1 0x40 MLOAD DUP1 SWAP2 SUB SWAP1 RETURN JUMPDEST PUSH1 0x3 PUSH0 SWAP1 SLOAD SWAP1 PUSH2 0x100 EXP SWAP1 DIV PUSH20 0xFFFFFFFFFFFFFFFFFFFFFFFFFFFFFFFFFFFFFFFF AND PUSH20 0xFFFFFFFFFFFFFFFFFFFFFFFFFFFFFFFFFFFFFFFF AND CALLER PUSH20 0xFFFFFFFFFFFFFFFFFFFFFFFFFFFFFFFFFFFFFFFF AND EQ PUSH2 0x18C JUMPI PUSH1 0x40 MLOAD PUSH32 0x8C379A000000000000000000000000000000000000000000000000000000000 DUP2 MSTORE PUSH1 0x4 ADD PUSH2 0x183 SWAP1 PUSH2 0x6D0 JUMP JUMPDEST PUSH1 0x40 MLOAD DUP1 SWAP2 SUB SWAP1 REVERT JUMPDEST PUSH0 JUMPDEST PUSH1 0x1 DUP1 SLOAD SWAP1 POP DUP2 LT ISZERO PUSH2 0x22A JUMPI PUSH0 PUSH1 0x1 DUP3 DUP2 SLOAD DUP2 LT PUSH2 0x1B0 JUMPI PUSH2 0x1AF PUSH2 0x6EE JUMP JUMPDEST JUMPDEST SWAP1 PUSH0 MSTORE PUSH1 0x20 PUSH0 KECCAK256 ADD PUSH0 SWAP1 SLOAD SWAP1 PUSH2 0x100 EXP SWAP1 DIV PUSH20 0xFFFFFFFFFFFFFFFFFFFFFFFFFFFFFFFFFFFFFFFF AND SWAP1 POP PUSH0 PUSH1 0x2 PUSH0 DUP4 PUSH20 0xFFFFFFFFFFFFFFFFFFFFFFFFFFFFFFFFFFFFFFFF AND PUSH20 0xFFFFFFFFFFFFFFFFFFFFFFFFFFFFFFFFFFFFFFFF AND DUP2 MSTORE PUSH1 0x20 ADD SWAP1 DUP2 MSTORE PUSH1 0x20 ADD PUSH0 KECCAK256 DUP2 SWAP1 SSTORE POP POP DUP1 DUP1 PUSH1 0x1 ADD SWAP2 POP POP PUSH2 0x18E JUMP JUMPDEST POP PUSH0 PUSH8 0xFFFFFFFFFFFFFFFF DUP2 GT ISZERO PUSH2 0x245 JUMPI PUSH2 0x244 PUSH2 0x71B JUMP JUMPDEST JUMPDEST PUSH1 0x40 MLOAD SWAP1 DUP1 DUP3 MSTORE DUP1 PUSH1 0x20 MUL PUSH1 0x20 ADD DUP3 ADD PUSH1 0x40 MSTORE DUP1 ISZERO PUSH2 0x273 JUMPI DUP2 PUSH1 0x20 ADD PUSH1 0x20 DUP3 MUL DUP1 CALLDATASIZE DUP4 CALLDATACOPY DUP1 DUP3 ADD SWAP2 POP POP SWAP1 POP JUMPDEST POP PUSH1 0x1 SWAP1 DUP1 MLOAD SWAP1 PUSH1 0x20 ADD SWAP1 PUSH2 0x289 SWAP3 SWAP2 SWAP1 PUSH2 0x4F2 JUMP JUMPDEST POP PUSH0 CALLER PUSH20 0xFFFFFFFFFFFFFFFFFFFFFFFFFFFFFFFFFFFFFFFF AND SELFBALANCE PUSH1 0x40 MLOAD PUSH2 0x2AF SWAP1 PUSH2 0x775 JUMP JUMPDEST PUSH0 PUSH1 0x40 MLOAD DUP1 DUP4 SUB DUP2 DUP6 DUP8 GAS CALL SWAP3 POP POP POP RETURNDATASIZE DUP1 PUSH0 DUP2 EQ PUSH2 0x2E9 JUMPI PUSH1 0x40 MLOAD SWAP2 POP PUSH1 0x1F NOT PUSH1 0x3F RETURNDATASIZE ADD AND DUP3 ADD PUSH1 0x40 MSTORE RETURNDATASIZE DUP3 MSTORE RETURNDATASIZE PUSH0 PUSH1 0x20 DUP5 ADD RETURNDATACOPY PUSH2 0x2EE JUMP JUMPDEST PUSH1 0x60 SWAP2 POP JUMPDEST POP POP SWAP1 POP DUP1 PUSH2 0x332 JUMPI PUSH1 0x40 MLOAD PUSH32 0x8C379A000000000000000000000000000000000000000000000000000000000 DUP2 MSTORE PUSH1 0x4 ADD PUSH2 0x329 SWAP1 PUSH2 0x7D3 JUMP JUMPDEST PUSH1 0x40 MLOAD DUP1 SWAP2 SUB SWAP1 REVERT JUMPDEST POP JUMP JUMPDEST PUSH1 0x2 PUSH1 0x20 MSTORE DUP1 PUSH0 MSTORE PUSH1 0x40 PUSH0 KECCAK256 PUSH0 SWAP2 POP SWAP1 POP SLOAD DUP2 JUMP JUMPDEST PUSH1 0x3 PUSH0 SWAP1 SLOAD SWAP1 PUSH2 0x100 EXP SWAP1 DIV PUSH20 0xFFFFFFFFFFFFFFFFFFFFFFFFFFFFFFFFFFFFFFFF AND DUP2 JUMP JUMPDEST PUSH0 SLOAD PUSH2 0x37A CALLVALUE PUSH2 0x415 JUMP JUMPDEST LT ISZERO PUSH2 0x3BB JUMPI PUSH1 0x40 MLOAD PUSH32 0x8C379A000000000000000000000000000000000000000000000000000000000 DUP2 MSTORE PUSH1 0x4 ADD PUSH2 0x3B2 SWAP1 PUSH2 0x83B JUMP JUMPDEST PUSH1 0x40 MLOAD DUP1 SWAP2 SUB SWAP1 REVERT JUMPDEST CALLVALUE PUSH1 0x2 PUSH0 CALLER PUSH20 0xFFFFFFFFFFFFFFFFFFFFFFFFFFFFFFFFFFFFFFFF AND PUSH20 0xFFFFFFFFFFFFFFFFFFFFFFFFFFFFFFFFFFFFFFFF AND DUP2 MSTORE PUSH1 0x20 ADD SWAP1 DUP2 MSTORE PUSH1 0x20 ADD PUSH0 KECCAK256 PUSH0 DUP3 DUP3 SLOAD PUSH2 0x407 SWAP2 SWAP1 PUSH2 0x886 JUMP JUMPDEST SWAP3 POP POP DUP2 SWAP1 SSTORE POP JUMP JUMPDEST PUSH0 SLOAD DUP2 JUMP JUMPDEST PUSH0 DUP1 PUSH2 0x41F PUSH2 0x44D JUMP JUMPDEST SWAP1 POP PUSH0 PUSH8 0xDE0B6B3A7640000 DUP5 DUP4 PUSH2 0x437 SWAP2 SWAP1 PUSH2 0x8B9 JUMP JUMPDEST PUSH2 0x441 SWAP2 SWAP1 PUSH2 0x927 JUMP JUMPDEST SWAP1 POP DUP1 SWAP3 POP POP POP SWAP2 SWAP1 POP JUMP JUMPDEST PUSH0 DUP1 PUSH20 0x694AA1769357215DE4FAC081BF1F309ADC325306 SWAP1 POP PUSH0 DUP2 PUSH20 0xFFFFFFFFFFFFFFFFFFFFFFFFFFFFFFFFFFFFFFFF AND PUSH4 0xFEAF968C PUSH1 0x40 MLOAD DUP2 PUSH4 0xFFFFFFFF AND PUSH1 0xE0 SHL DUP2 MSTORE PUSH1 0x4 ADD PUSH1 0xA0 PUSH1 0x40 MLOAD DUP1 DUP4 SUB DUP2 DUP7 GAS STATICCALL ISZERO DUP1 ISZERO PUSH2 0x4B0 JUMPI RETURNDATASIZE PUSH0 DUP1 RETURNDATACOPY RETURNDATASIZE PUSH0 REVERT JUMPDEST POP POP POP POP PUSH1 0x40 MLOAD RETURNDATASIZE PUSH1 0x1F NOT PUSH1 0x1F DUP3 ADD AND DUP3 ADD DUP1 PUSH1 0x40 MSTORE POP DUP2 ADD SWAP1 PUSH2 0x4D4 SWAP2 SWAP1 PUSH2 0x9F3 JUMP JUMPDEST POP POP POP SWAP2 POP POP PUSH5 0x2540BE400 DUP2 PUSH2 0x4EB SWAP2 SWAP1 PUSH2 0x8B9 JUMP JUMPDEST SWAP3 POP POP POP SWAP1 JUMP JUMPDEST DUP3 DUP1 SLOAD DUP3 DUP3 SSTORE SWAP1 PUSH0 MSTORE PUSH1 0x20 PUSH0 KECCAK256 SWAP1 DUP2 ADD SWAP3 DUP3 ISZERO PUSH2 0x568 JUMPI SWAP2 PUSH1 0x20 MUL DUP3 ADD JUMPDEST DUP3 DUP2 GT ISZERO PUSH2 0x567 JUMPI DUP3 MLOAD DUP3 PUSH0 PUSH2 0x100 EXP DUP2 SLOAD DUP2 PUSH20 0xFFFFFFFFFFFFFFFFFFFFFFFFFFFFFFFFFFFFFFFF MUL NOT AND SWAP1 DUP4 PUSH20 0xFFFFFFFFFFFFFFFFFFFFFFFFFFFFFFFFFFFFFFFF AND MUL OR SWAP1 SSTORE POP SWAP2 PUSH1 0x20 ADD SWAP2 SWAP1 PUSH1 0x1 ADD SWAP1 PUSH2 0x510 JUMP JUMPDEST JUMPDEST POP SWAP1 POP PUSH2 0x575 SWAP2 SWAP1 PUSH2 0x579 JUMP JUMPDEST POP SWAP1 JUMP JUMPDEST JUMPDEST DUP1 DUP3 GT ISZERO PUSH2 0x590 JUMPI PUSH0 DUP2 PUSH0 SWAP1 SSTORE POP PUSH1 0x1 ADD PUSH2 0x57A JUMP JUMPDEST POP SWAP1 JUMP JUMPDEST PUSH0 DUP1 REVERT JUMPDEST PUSH0 PUSH20 0xFFFFFFFFFFFFFFFFFFFFFFFFFFFFFFFFFFFFFFFF DUP3 AND SWAP1 POP SWAP2 SWAP1 POP JUMP JUMPDEST PUSH0 PUSH2 0x5C1 DUP3 PUSH2 0x598 JUMP JUMPDEST SWAP1 POP SWAP2 SWAP1 POP JUMP JUMPDEST PUSH2 0x5D1 DUP2 PUSH2 0x5B7 JUMP JUMPDEST DUP2 EQ PUSH2 0x5DB JUMPI PUSH0 DUP1 REVERT JUMPDEST POP JUMP JUMPDEST PUSH0 DUP2 CALLDATALOAD SWAP1 POP PUSH2 0x5EC DUP2 PUSH2 0x5C8 JUMP JUMPDEST SWAP3 SWAP2 POP POP JUMP JUMPDEST PUSH0 PUSH1 0x20 DUP3 DUP5 SUB SLT ISZERO PUSH2 0x607 JUMPI PUSH2 0x606 PUSH2 0x594 JUMP JUMPDEST JUMPDEST PUSH0 PUSH2 0x614 DUP5 DUP3 DUP6 ADD PUSH2 0x5DE JUMP JUMPDEST SWAP2 POP POP SWAP3 SWAP2 POP POP JUMP JUMPDEST PUSH0 DUP2 SWAP1 POP SWAP2 SWAP1 POP JUMP JUMPDEST PUSH2 0x62F DUP2 PUSH2 0x61D JUMP JUMPDEST DUP3 MSTORE POP POP JUMP JUMPDEST PUSH0 PUSH1 0x20 DUP3 ADD SWAP1 POP PUSH2 0x648 PUSH0 DUP4 ADD DUP5 PUSH2 0x626 JUMP JUMPDEST SWAP3 SWAP2 POP POP JUMP JUMPDEST PUSH2 0x657 DUP2 PUSH2 0x5B7 JUMP JUMPDEST DUP3 MSTORE POP POP JUMP JUMPDEST PUSH0 PUSH1 0x20 DUP3 ADD SWAP1 POP PUSH2 0x670 PUSH0 DUP4 ADD DUP5 PUSH2 0x64E JUMP JUMPDEST SWAP3 SWAP2 POP POP JUMP JUMPDEST PUSH0 DUP3 DUP3 MSTORE PUSH1 0x20 DUP3 ADD SWAP1 POP SWAP3 SWAP2 POP POP JUMP JUMPDEST PUSH32 0x4F6E6C79206F776E65722063616E207769746864726177000000000000000000 PUSH0 DUP3 ADD MSTORE POP JUMP JUMPDEST PUSH0 PUSH2 0x6BA PUSH1 0x17 DUP4 PUSH2 0x676 JUMP JUMPDEST SWAP2 POP PUSH2 0x6C5 DUP3 PUSH2 0x686 JUMP JUMPDEST PUSH1 0x20 DUP3 ADD SWAP1 POP SWAP2 SWAP1 POP JUMP JUMPDEST PUSH0 PUSH1 0x20 DUP3 ADD SWAP1 POP DUP2 DUP2 SUB PUSH0 DUP4 ADD MSTORE PUSH2 0x6E7 DUP2 PUSH2 0x6AE JUMP JUMPDEST SWAP1 POP SWAP2 SWAP1 POP JUMP JUMPDEST PUSH32 0x4E487B7100000000000000000000000000000000000000000000000000000000 PUSH0 MSTORE PUSH1 0x32 PUSH1 0x4 MSTORE PUSH1 0x24 PUSH0 REVERT JUMPDEST PUSH32 0x4E487B7100000000000000000000000000000000000000000000000000000000 PUSH0 MSTORE PUSH1 0x41 PUSH1 0x4 MSTORE PUSH1 0x24 PUSH0 REVERT JUMPDEST PUSH0 DUP2 SWAP1 POP SWAP3 SWAP2 POP POP JUMP JUMPDEST POP JUMP JUMPDEST PUSH0 PUSH2 0x760 PUSH0 DUP4 PUSH2 0x748 JUMP JUMPDEST SWAP2 POP PUSH2 0x76B DUP3 PUSH2 0x752 JUMP JUMPDEST PUSH0 DUP3 ADD SWAP1 POP SWAP2 SWAP1 POP JUMP JUMPDEST PUSH0 PUSH2 0x77F DUP3 PUSH2 0x755 JUMP JUMPDEST SWAP2 POP DUP2 SWAP1 POP SWAP2 SWAP1 POP JUMP JUMPDEST PUSH32 0x5472616E73616374696F6E206661696C65640000000000000000000000000000 PUSH0 DUP3 ADD MSTORE POP JUMP JUMPDEST PUSH0 PUSH2 0x7BD PUSH1 0x12 DUP4 PUSH2 0x676 JUMP JUMPDEST SWAP2 POP PUSH2 0x7C8 DUP3 PUSH2 0x789 JUMP JUMPDEST PUSH1 0x20 DUP3 ADD SWAP1 POP SWAP2 SWAP1 POP JUMP JUMPDEST PUSH0 PUSH1 0x20 DUP3 ADD SWAP1 POP DUP2 DUP2 SUB PUSH0 DUP4 ADD MSTORE PUSH2 0x7EA DUP2 PUSH2 0x7B1 JUMP JUMPDEST SWAP1 POP SWAP2 SWAP1 POP JUMP JUMPDEST PUSH32 0x4D696E696D756D2066756E64696E6720616D6F756E74206E6F74206D65740000 PUSH0 DUP3 ADD MSTORE POP JUMP JUMPDEST PUSH0 PUSH2 0x825 PUSH1 0x1E DUP4 PUSH2 0x676 JUMP JUMPDEST SWAP2 POP PUSH2 0x830 DUP3 PUSH2 0x7F1 JUMP JUMPDEST PUSH1 0x20 DUP3 ADD SWAP1 POP SWAP2 SWAP1 POP JUMP JUMPDEST PUSH0 PUSH1 0x20 DUP3 ADD SWAP1 POP DUP2 DUP2 SUB PUSH0 DUP4 ADD MSTORE PUSH2 0x852 DUP2 PUSH2 0x819 JUMP JUMPDEST SWAP1 POP SWAP2 SWAP1 POP JUMP JUMPDEST PUSH32 0x4E487B7100000000000000000000000000000000000000000000000000000000 PUSH0 MSTORE PUSH1 0x11 PUSH1 0x4 MSTORE PUSH1 0x24 PUSH0 REVERT JUMPDEST PUSH0 PUSH2 0x890 DUP3 PUSH2 0x61D JUMP JUMPDEST SWAP2 POP PUSH2 0x89B DUP4 PUSH2 0x61D JUMP JUMPDEST SWAP3 POP DUP3 DUP3 ADD SWAP1 POP DUP1 DUP3 GT ISZERO PUSH2 0x8B3 JUMPI PUSH2 0x8B2 PUSH2 0x859 JUMP JUMPDEST JUMPDEST SWAP3 SWAP2 POP POP JUMP JUMPDEST PUSH0 PUSH2 0x8C3 DUP3 PUSH2 0x61D JUMP JUMPDEST SWAP2 POP PUSH2 0x8CE DUP4 PUSH2 0x61D JUMP JUMPDEST SWAP3 POP DUP3 DUP3 MUL PUSH2 0x8DC DUP2 PUSH2 0x61D JUMP JUMPDEST SWAP2 POP DUP3 DUP3 DIV DUP5 EQ DUP4 ISZERO OR PUSH2 0x8F3 JUMPI PUSH2 0x8F2 PUSH2 0x859 JUMP JUMPDEST JUMPDEST POP SWAP3 SWAP2 POP POP JUMP JUMPDEST PUSH32 0x4E487B7100000000000000000000000000000000000000000000000000000000 PUSH0 MSTORE PUSH1 0x12 PUSH1 0x4 MSTORE PUSH1 0x24 PUSH0 REVERT JUMPDEST PUSH0 PUSH2 0x931 DUP3 PUSH2 0x61D JUMP JUMPDEST SWAP2 POP PUSH2 0x93C DUP4 PUSH2 0x61D JUMP JUMPDEST SWAP3 POP DUP3 PUSH2 0x94C JUMPI PUSH2 0x94B PUSH2 0x8FA JUMP JUMPDEST JUMPDEST DUP3 DUP3 DIV SWAP1 POP SWAP3 SWAP2 POP POP JUMP JUMPDEST PUSH0 PUSH10 0xFFFFFFFFFFFFFFFFFFFF DUP3 AND SWAP1 POP SWAP2 SWAP1 POP JUMP JUMPDEST PUSH2 0x975 DUP2 PUSH2 0x957 JUMP JUMPDEST DUP2 EQ PUSH2 0x97F JUMPI PUSH0 DUP1 REVERT JUMPDEST POP JUMP JUMPDEST PUSH0 DUP2 MLOAD SWAP1 POP PUSH2 0x990 DUP2 PUSH2 0x96C JUMP JUMPDEST SWAP3 SWAP2 POP POP JUMP JUMPDEST PUSH0 DUP2 SWAP1 POP SWAP2 SWAP1 POP JUMP JUMPDEST PUSH2 0x9A8 DUP2 PUSH2 0x996 JUMP JUMPDEST DUP2 EQ PUSH2 0x9B2 JUMPI PUSH0 DUP1 REVERT JUMPDEST POP JUMP JUMPDEST PUSH0 DUP2 MLOAD SWAP1 POP PUSH2 0x9C3 DUP2 PUSH2 0x99F JUMP JUMPDEST SWAP3 SWAP2 POP POP JUMP JUMPDEST PUSH2 0x9D2 DUP2 PUSH2 0x61D JUMP JUMPDEST DUP2 EQ PUSH2 0x9DC JUMPI PUSH0 DUP1 REVERT JUMPDEST POP JUMP JUMPDEST PUSH0 DUP2 MLOAD SWAP1 POP PUSH2 0x9ED DUP2 PUSH2 0x9C9 JUMP JUMPDEST SWAP3 SWAP2 POP POP JUMP JUMPDEST PUSH0 DUP1 PUSH0 DUP1 PUSH0 PUSH1 0xA0 DUP7 DUP9 SUB SLT ISZERO PUSH2 0xA0C JUMPI PUSH2 0xA0B PUSH2 0x594 JUMP JUMPDEST JUMPDEST PUSH0 PUSH2 0xA19 DUP9 DUP3 DUP10 ADD PUSH2 0x982 JUMP JUMPDEST SWAP6 POP POP PUSH1 0x20 PUSH2 0xA2A DUP9 DUP3 DUP10 ADD PUSH2 0x9B5 JUMP JUMPDEST SWAP5 POP POP PUSH1 0x40 PUSH2 0xA3B DUP9 DUP3 DUP10 ADD PUSH2 0x9DF JUMP JUMPDEST SWAP4 POP POP PUSH1 0x60 PUSH2 0xA4C DUP9 DUP3 DUP10 ADD PUSH2 0x9DF JUMP JUMPDEST SWAP3 POP POP PUSH1 0x80 PUSH2 0xA5D DUP9 DUP3 DUP10 ADD PUSH2 0x982 JUMP JUMPDEST SWAP2 POP POP SWAP3 SWAP6 POP SWAP3 SWAP6 SWAP1 SWAP4 POP JUMP INVALID LOG2 PUSH5 0x6970667358 0x22 SLT KECCAK256 XOR DUP2 0x4E ADDMOD 0xBB 0xC6 PUSH26 0x281F6BAF543C7AEA0EB0CBE68E9057435B1DE0905EFB496B1F64 PUSH20 0x6F6C634300081800330000000000000000000000 "
				},
				"gasEstimates": {
					"creation": {
						"codeDepositCost": "544000",
						"executionCost": "46943",
						"totalCost": "590943"
					},
					"external": {
						"addressToAmountFunded(address)": "2802",
						"fund()": "infinite",
						"minUSD()": "2490",
						"owner()": "2530",
						"withdraw()": "infinite"
					}
				},
				"methodIdentifiers": {
					"addressToAmountFunded(address)": "3e47d6f3",
					"fund()": "b60d4288",
					"minUSD()": "dc992aa0",
					"owner()": "8da5cb5b",
					"withdraw()": "3ccfd60b"
				}
			},
			"storageLayout": {
				"storage": [
					{
						"astId": 55,
						"contract": "contracts/FundMe.sol:FundMe",
						"label": "minUSD",
						"offset": 0,
						"slot": "0",
						"type": "t_uint256"
					},
					{
						"astId": 58,
						"contract": "contracts/FundMe.sol:FundMe",
						"label": "funders",
						"offset": 0,
						"slot": "1",
						"type": "t_array(t_address)dyn_storage"
					},
					{
						"astId": 62,
						"contract": "contracts/FundMe.sol:FundMe",
						"label": "addressToAmountFunded",
						"offset": 0,
						"slot": "2",
						"type": "t_mapping(t_address,t_uint256)"
					},
					{
						"astId": 64,
						"contract": "contracts/FundMe.sol:FundMe",
						"label": "owner",
						"offset": 0,
						"slot": "3",
						"type": "t_address"
					}
				],
				"types": {
					"t_address": {
						"encoding": "inplace",
						"label": "address",
						"numberOfBytes": "20"
					},
					"t_array(t_address)dyn_storage": {
						"base": "t_address",
						"encoding": "dynamic_array",
						"label": "address[]",
						"numberOfBytes": "32"
					},
					"t_mapping(t_address,t_uint256)": {
						"encoding": "mapping",
						"key": "t_address",
						"label": "mapping(address => uint256)",
						"numberOfBytes": "32",
						"value": "t_uint256"
					},
					"t_uint256": {
						"encoding": "inplace",
						"label": "uint256",
						"numberOfBytes": "32"
					}
				}
			},
			"userdoc": {
				"kind": "user",
				"methods": {},
				"version": 1
			}
		}
	}
}